{
  "_format": "hh-sol-artifact-1",
  "contractName": "Campaign",
  "sourceName": "contracts/Campaign.sol",
  "abi": [
    {
      "inputs": [
        {
          "internalType": "address",
          "name": "_owner",
          "type": "address"
        },
        {
          "internalType": "string",
          "name": "_name",
          "type": "string"
        },
        {
          "internalType": "string",
          "name": "_description",
          "type": "string"
        },
        {
          "internalType": "string",
          "name": "_image",
          "type": "string"
        },
        {
          "internalType": "int256",
          "name": "_targetAmount",
          "type": "int256"
        },
        {
          "internalType": "string",
          "name": "_endDate",
          "type": "string"
        }
      ],
      "stateMutability": "payable",
      "type": "constructor"
    },
    {
      "anonymous": false,
      "inputs": [
        {
          "indexed": true,
          "internalType": "address",
          "name": "donor",
          "type": "address"
        },
        {
          "indexed": false,
          "internalType": "uint256",
          "name": "amount",
          "type": "uint256"
        }
      ],
      "name": "DonationReceived",
      "type": "event"
    },
    {
      "anonymous": false,
      "inputs": [
        {
          "indexed": true,
          "internalType": "address",
          "name": "owner",
          "type": "address"
        },
        {
          "indexed": false,
          "internalType": "uint256",
          "name": "amount",
          "type": "uint256"
        }
      ],
      "name": "Withdraw",
      "type": "event"
    },
    {
      "stateMutability": "payable",
      "type": "fallback"
    },
    {
      "inputs": [],
      "name": "currentAmount",
      "outputs": [
        {
          "internalType": "int256",
          "name": "",
          "type": "int256"
        }
      ],
      "stateMutability": "view",
      "type": "function"
    },
    {
      "inputs": [],
      "name": "description",
      "outputs": [
        {
          "internalType": "string",
          "name": "",
          "type": "string"
        }
      ],
      "stateMutability": "view",
      "type": "function"
    },
    {
      "inputs": [],
      "name": "donate",
      "outputs": [],
      "stateMutability": "payable",
      "type": "function"
    },
    {
      "inputs": [],
      "name": "endDate",
      "outputs": [
        {
          "internalType": "string",
          "name": "",
          "type": "string"
        }
      ],
      "stateMutability": "view",
      "type": "function"
    },
    {
      "inputs": [],
      "name": "image",
      "outputs": [
        {
          "internalType": "string",
          "name": "",
          "type": "string"
        }
      ],
      "stateMutability": "view",
      "type": "function"
    },
    {
      "inputs": [],
      "name": "name",
      "outputs": [
        {
          "internalType": "string",
          "name": "",
          "type": "string"
        }
      ],
      "stateMutability": "view",
      "type": "function"
    },
    {
      "inputs": [],
      "name": "owner",
      "outputs": [
        {
          "internalType": "address",
          "name": "",
          "type": "address"
        }
      ],
      "stateMutability": "view",
      "type": "function"
    },
    {
      "inputs": [],
      "name": "targetAmount",
      "outputs": [
        {
          "internalType": "int256",
          "name": "",
          "type": "int256"
        }
      ],
      "stateMutability": "view",
      "type": "function"
    },
    {
      "inputs": [],
      "name": "transactions",
      "outputs": [
        {
          "internalType": "int256",
          "name": "",
          "type": "int256"
        }
      ],
      "stateMutability": "view",
      "type": "function"
    },
    {
      "inputs": [],
      "name": "withdraw",
      "outputs": [
        {
          "internalType": "uint256",
          "name": "",
          "type": "uint256"
        }
      ],
      "stateMutability": "nonpayable",
      "type": "function"
    },
    {
      "inputs": [],
      "name": "withdrawn",
      "outputs": [
        {
          "internalType": "bool",
          "name": "",
          "type": "bool"
        }
      ],
      "stateMutability": "view",
      "type": "function"
    },
    {
      "inputs": [],
      "name": "withdrawnAmount",
      "outputs": [
        {
          "internalType": "int256",
          "name": "",
          "type": "int256"
        }
      ],
      "stateMutability": "view",
      "type": "function"
    },
    {
      "stateMutability": "payable",
      "type": "receive"
    }
  ],
  "bytecode": "0x60806040526000600555600060065560006008556000600960006101000a81548160ff0219169083151502179055506040516200145338038062001453833981810160405281019062000053919062000321565b856000806101000a81548173ffffffffffffffffffffffffffffffffffffffff021916908373ffffffffffffffffffffffffffffffffffffffff1602179055508460019081620000a4919062000684565b508360029081620000b6919062000684565b508260039081620000c8919062000684565b50816004819055508060079081620000e1919062000684565b505050505050506200076b565b6000604051905090565b600080fd5b600080fd5b600073ffffffffffffffffffffffffffffffffffffffff82169050919050565b60006200012f8262000102565b9050919050565b620001418162000122565b81146200014d57600080fd5b50565b600081519050620001618162000136565b92915050565b600080fd5b600080fd5b6000601f19601f8301169050919050565b7f4e487b7100000000000000000000000000000000000000000000000000000000600052604160045260246000fd5b620001bc8262000171565b810181811067ffffffffffffffff82111715620001de57620001dd62000182565b5b80604052505050565b6000620001f3620000ee565b9050620002018282620001b1565b919050565b600067ffffffffffffffff82111562000224576200022362000182565b5b6200022f8262000171565b9050602081019050919050565b60005b838110156200025c5780820151818401526020810190506200023f565b60008484015250505050565b60006200027f620002798462000206565b620001e7565b9050828152602081018484840111156200029e576200029d6200016c565b5b620002ab8482856200023c565b509392505050565b600082601f830112620002cb57620002ca62000167565b5b8151620002dd84826020860162000268565b91505092915050565b6000819050919050565b620002fb81620002e6565b81146200030757600080fd5b50565b6000815190506200031b81620002f0565b92915050565b60008060008060008060c08789031215620003415762000340620000f8565b5b60006200035189828a0162000150565b965050602087015167ffffffffffffffff811115620003755762000374620000fd565b5b6200038389828a01620002b3565b955050604087015167ffffffffffffffff811115620003a757620003a6620000fd565b5b620003b589828a01620002b3565b945050606087015167ffffffffffffffff811115620003d957620003d8620000fd565b5b620003e789828a01620002b3565b9350506080620003fa89828a016200030a565b92505060a087015167ffffffffffffffff8111156200041e576200041d620000fd565b5b6200042c89828a01620002b3565b9150509295509295509295565b600081519050919050565b7f4e487b7100000000000000000000000000000000000000000000000000000000600052602260045260246000fd5b600060028204905060018216806200048c57607f821691505b602082108103620004a257620004a162000444565b5b50919050565b60008190508160005260206000209050919050565b60006020601f8301049050919050565b600082821b905092915050565b6000600883026200050c7fffffffffffffffffffffffffffffffffffffffffffffffffffffffffffffffff82620004cd565b620005188683620004cd565b95508019841693508086168417925050509392505050565b6000819050919050565b6000819050919050565b6000620005656200055f620005598462000530565b6200053a565b62000530565b9050919050565b6000819050919050565b620005818362000544565b6200059962000590826200056c565b848454620004da565b825550505050565b600090565b620005b0620005a1565b620005bd81848462000576565b505050565b5b81811015620005e557620005d9600082620005a6565b600181019050620005c3565b5050565b601f8211156200063457620005fe81620004a8565b6200060984620004bd565b8101602085101562000619578190505b620006316200062885620004bd565b830182620005c2565b50505b505050565b600082821c905092915050565b6000620006596000198460080262000639565b1980831691505092915050565b600062000674838362000646565b9150826002028217905092915050565b6200068f8262000439565b67ffffffffffffffff811115620006ab57620006aa62000182565b5b620006b7825462000473565b620006c4828285620005e9565b600060209050601f831160018114620006fc5760008415620006e7578287015190505b620006f3858262000666565b86555062000763565b601f1984166200070c86620004a8565b60005b8281101562000736578489015182556001820191506020850194506020810190506200070f565b8683101562000756578489015162000752601f89168262000646565b8355505b6001600288020188555050505b505050505050565b610cd8806200077b6000396000f3fe6080604052600436106100ab5760003560e01c8063953b8fb811610064578063953b8fb8146101c6578063c24a0f8b146101f1578063c80ec5221461021c578063ed88c68e14610247578063f3ccaac014610251578063f441b1c81461027c576100ba565b806306fdde03146100c457806318015191146100ef5780633ccfd60b1461011a5780637284e41614610145578063830de4b1146101705780638da5cb5b1461019b576100ba565b366100ba576100b86102a7565b005b6100c26102a7565b005b3480156100d057600080fd5b506100d961036d565b6040516100e691906108b7565b60405180910390f35b3480156100fb57600080fd5b506101046103fb565b60405161011191906108f2565b60405180910390f35b34801561012657600080fd5b5061012f610401565b60405161013c9190610926565b60405180910390f35b34801561015157600080fd5b5061015a610634565b60405161016791906108b7565b60405180910390f35b34801561017c57600080fd5b506101856106c2565b60405161019291906108f2565b60405180910390f35b3480156101a757600080fd5b506101b06106c8565b6040516101bd9190610982565b60405180910390f35b3480156101d257600080fd5b506101db6106ec565b6040516101e891906108f2565b60405180910390f35b3480156101fd57600080fd5b506102066106f2565b60405161021391906108b7565b60405180910390f35b34801561022857600080fd5b50610231610780565b60405161023e91906109b8565b60405180910390f35b61024f6102a7565b005b34801561025d57600080fd5b50610266610793565b60405161027391906108b7565b60405180910390f35b34801561028857600080fd5b50610291610821565b60405161029e91906108f2565b60405180910390f35b600034116102ea576040517f08c379a00000000000000000000000000000000000000000000000000000000081526004016102e190610a1f565b60405180910390fd5b34600560008282546102fc9190610a6e565b925050819055506001600660008282546103169190610a6e565b925050819055503373ffffffffffffffffffffffffffffffffffffffff167f264f630d9efa0d07053a31163641d9fcc0adafc9d9e76f1c37c2ce3a558d2c52346040516103639190610926565b60405180910390a2565b6001805461037a90610ae1565b80601f01602080910402602001604051908101604052809291908181526020018280546103a690610ae1565b80156103f35780601f106103c8576101008083540402835291602001916103f3565b820191906000526020600020905b8154815290600101906020018083116103d657829003601f168201915b505050505081565b60065481565b60008060009054906101000a900473ffffffffffffffffffffffffffffffffffffffff1673ffffffffffffffffffffffffffffffffffffffff163373ffffffffffffffffffffffffffffffffffffffff1614610492576040517f08c379a000000000000000000000000000000000000000000000000000000000815260040161048990610b84565b60405180910390fd5b600960009054906101000a900460ff16156104e2576040517f08c379a00000000000000000000000000000000000000000000000000000000081526004016104d990610c16565b60405180910390fd5b600060055413610527576040517f08c379a000000000000000000000000000000000000000000000000000000000815260040161051e90610c82565b60405180910390fd5b600060055490506001600960006101000a81548160ff02191690831515021790555060006005819055508060088190555060008054906101000a900473ffffffffffffffffffffffffffffffffffffffff1673ffffffffffffffffffffffffffffffffffffffff166108fc829081150290604051600060405180830381858888f193505050501580156105be573d6000803e3d6000fd5b5060008054906101000a900473ffffffffffffffffffffffffffffffffffffffff1673ffffffffffffffffffffffffffffffffffffffff167f884edad9ce6fa2440d8a54cc123490eb96d2768479d49ff9c7366125a9424364826040516106259190610926565b60405180910390a28091505090565b6002805461064190610ae1565b80601f016020809104026020016040519081016040528092919081815260200182805461066d90610ae1565b80156106ba5780601f1061068f576101008083540402835291602001916106ba565b820191906000526020600020905b81548152906001019060200180831161069d57829003601f168201915b505050505081565b60085481565b60008054906101000a900473ffffffffffffffffffffffffffffffffffffffff1681565b60045481565b600780546106ff90610ae1565b80601f016020809104026020016040519081016040528092919081815260200182805461072b90610ae1565b80156107785780601f1061074d57610100808354040283529160200191610778565b820191906000526020600020905b81548152906001019060200180831161075b57829003601f168201915b505050505081565b600960009054906101000a900460ff1681565b600380546107a090610ae1565b80601f01602080910402602001604051908101604052809291908181526020018280546107cc90610ae1565b80156108195780601f106107ee57610100808354040283529160200191610819565b820191906000526020600020905b8154815290600101906020018083116107fc57829003601f168201915b505050505081565b60055481565b600081519050919050565b600082825260208201905092915050565b60005b83811015610861578082015181840152602081019050610846565b60008484015250505050565b6000601f19601f8301169050919050565b600061088982610827565b6108938185610832565b93506108a3818560208601610843565b6108ac8161086d565b840191505092915050565b600060208201905081810360008301526108d1818461087e565b905092915050565b6000819050919050565b6108ec816108d9565b82525050565b600060208201905061090760008301846108e3565b92915050565b6000819050919050565b6109208161090d565b82525050565b600060208201905061093b6000830184610917565b92915050565b600073ffffffffffffffffffffffffffffffffffffffff82169050919050565b600061096c82610941565b9050919050565b61097c81610961565b82525050565b60006020820190506109976000830184610973565b92915050565b60008115159050919050565b6109b28161099d565b82525050565b60006020820190506109cd60008301846109a9565b92915050565b7f446f6e6174696f6e206d7573742062652067726561746572207468616e203000600082015250565b6000610a09601f83610832565b9150610a14826109d3565b602082019050919050565b60006020820190508181036000830152610a38816109fc565b9050919050565b7f4e487b7100000000000000000000000000000000000000000000000000000000600052601160045260246000fd5b6000610a79826108d9565b9150610a84836108d9565b925082820190508281121560008312168382126000841215161715610aac57610aab610a3f565b5b92915050565b7f4e487b7100000000000000000000000000000000000000000000000000000000600052602260045260246000fd5b60006002820490506001821680610af957607f821691505b602082108103610b0c57610b0b610ab2565b5b50919050565b7f4f6e6c7920746865206f776e65722063616e2063616c6c20746869732066756e60008201527f6374696f6e000000000000000000000000000000000000000000000000000000602082015250565b6000610b6e602583610832565b9150610b7982610b12565b604082019050919050565b60006020820190508181036000830152610b9d81610b61565b9050919050565b7f46756e6473206861766520616c7265616479206265656e20776974686472617760008201527f6e00000000000000000000000000000000000000000000000000000000000000602082015250565b6000610c00602183610832565b9150610c0b82610ba4565b604082019050919050565b60006020820190508181036000830152610c2f81610bf3565b9050919050565b7f4e6f2066756e647320746f207769746864726177000000000000000000000000600082015250565b6000610c6c601483610832565b9150610c7782610c36565b602082019050919050565b60006020820190508181036000830152610c9b81610c5f565b905091905056fea2646970667358221220fb435db5bc6c07ef18171493d9dca13146e17ceb0a2d6fda5736a8a2f80211b064736f6c63430008180033",
  "linkReferences": {},
  "deployedLinkReferences": {}
}