{
  "_format": "hh-sol-artifact-1",
  "contractName": "CampaignFactory",
  "sourceName": "contracts/CampaignFactory.sol",
  "abi": [
    {
      "anonymous": false,
      "inputs": [
        {
          "indexed": false,
          "internalType": "address",
          "name": "campaignAddress",
          "type": "address"
        },
        {
          "indexed": false,
          "internalType": "address",
          "name": "owner",
          "type": "address"
        },
        {
          "indexed": false,
          "internalType": "string",
          "name": "name",
          "type": "string"
        },
        {
          "indexed": false,
          "internalType": "string",
          "name": "description",
          "type": "string"
        },
        {
          "indexed": false,
          "internalType": "string",
          "name": "image",
          "type": "string"
        },
        {
          "indexed": false,
          "internalType": "int256",
          "name": "targetAmount",
          "type": "int256"
        },
        {
          "indexed": false,
          "internalType": "string",
          "name": "endDate",
          "type": "string"
        }
      ],
      "name": "CampaignCreated",
      "type": "event"
    },
    {
      "anonymous": false,
      "inputs": [
        {
          "indexed": false,
          "internalType": "address",
          "name": "campaignAddress",
          "type": "address"
        },
        {
          "indexed": false,
          "internalType": "address",
          "name": "donor",
          "type": "address"
        },
        {
          "indexed": false,
          "internalType": "uint256",
          "name": "amount",
          "type": "uint256"
        }
      ],
      "name": "DonationMade",
      "type": "event"
    },
    {
      "anonymous": false,
      "inputs": [
        {
          "indexed": false,
          "internalType": "address",
          "name": "campaignAddress",
          "type": "address"
        },
        {
          "indexed": false,
          "internalType": "address",
          "name": "owner",
          "type": "address"
        },
        {
          "indexed": false,
          "internalType": "uint256",
          "name": "amount",
          "type": "uint256"
        }
      ],
      "name": "FundsWithdrawn",
      "type": "event"
    },
    {
      "inputs": [
        {
          "internalType": "string",
          "name": "_name",
          "type": "string"
        },
        {
          "internalType": "string",
          "name": "_description",
          "type": "string"
        },
        {
          "internalType": "string",
          "name": "_image",
          "type": "string"
        },
        {
          "internalType": "int256",
          "name": "_targetAmount",
          "type": "int256"
        },
        {
          "internalType": "string",
          "name": "_endDate",
          "type": "string"
        }
      ],
      "name": "addCampaign",
      "outputs": [],
      "stateMutability": "nonpayable",
      "type": "function"
    },
    {
      "inputs": [
        {
          "internalType": "uint256",
          "name": "",
          "type": "uint256"
        }
      ],
      "name": "campaigns",
      "outputs": [
        {
          "internalType": "contract Campaign",
          "name": "",
          "type": "address"
        }
      ],
      "stateMutability": "view",
      "type": "function"
    },
    {
      "inputs": [
        {
          "internalType": "uint256",
          "name": "index",
          "type": "uint256"
        }
      ],
      "name": "donateToCampaign",
      "outputs": [],
      "stateMutability": "payable",
      "type": "function"
    },
    {
      "inputs": [],
      "name": "getCampaigns",
      "outputs": [
        {
          "internalType": "contract Campaign[]",
          "name": "",
          "type": "address[]"
        }
      ],
      "stateMutability": "view",
      "type": "function"
    },
    {
      "inputs": [
        {
          "internalType": "uint256",
          "name": "index",
          "type": "uint256"
        }
      ],
      "name": "withdrawFromCampaign",
      "outputs": [],
      "stateMutability": "nonpayable",
      "type": "function"
    }
  ],
  "bytecode": "0x608060405234801561001057600080fd5b506123d1806100206000396000f3fe608060405260043610620000505760003560e01c80630e39ac671462000055578063141961bc146200008357806342a4fda814620000c7578063712045a014620000e7578063a6b036331462000115575b600080fd5b3480156200006257600080fd5b506200008160048036038101906200007b9190620006c7565b62000145565b005b3480156200009057600080fd5b50620000af6004803603810190620000a99190620006c7565b62000370565b604051620000be919062000784565b60405180910390f35b620000e56004803603810190620000df9190620006c7565b620003b0565b005b348015620000f457600080fd5b506200011360048036038101906200010d91906200093e565b620004e3565b005b3480156200012257600080fd5b506200012d620005da565b6040516200013c919062000b10565b60405180910390f35b60008054905081106200018f576040517f08c379a0000000000000000000000000000000000000000000000000000000008152600401620001869062000b95565b60405180910390fd5b6000808281548110620001a757620001a662000bb7565b5b9060005260206000200160009054906101000a900473ffffffffffffffffffffffffffffffffffffffff1690508073ffffffffffffffffffffffffffffffffffffffff16638da5cb5b6040518163ffffffff1660e01b8152600401602060405180830381865afa15801562000220573d6000803e3d6000fd5b505050506040513d601f19601f8201168201806040525081019062000246919062000c2b565b73ffffffffffffffffffffffffffffffffffffffff163373ffffffffffffffffffffffffffffffffffffffff1614620002b6576040517f08c379a0000000000000000000000000000000000000000000000000000000008152600401620002ad9062000cd3565b60405180910390fd5b60008173ffffffffffffffffffffffffffffffffffffffff16633ccfd60b6040518163ffffffff1660e01b81526004016020604051808303816000875af115801562000306573d6000803e3d6000fd5b505050506040513d601f19601f820116820180604052508101906200032c919062000d0c565b90507fa92ff919b850e4909ab2261d907ef955f11bc1716733a6cbece38d163a69af8a823383604051620003639392919062000d60565b60405180910390a1505050565b600081815481106200038157600080fd5b906000526020600020016000915054906101000a900473ffffffffffffffffffffffffffffffffffffffff1681565b6000805490508110620003fa576040517f08c379a0000000000000000000000000000000000000000000000000000000008152600401620003f19062000b95565b60405180910390fd5b600080828154811062000412576200041162000bb7565b5b9060005260206000200160009054906101000a900473ffffffffffffffffffffffffffffffffffffffff1690508073ffffffffffffffffffffffffffffffffffffffff1663ed88c68e346040518263ffffffff1660e01b81526004016000604051808303818588803b1580156200048857600080fd5b505af11580156200049d573d6000803e3d6000fd5b50505050507f70c6bc6cf53707fb5561feef795d557f7e46f57bd4f1a13ce36e9ffdf58d38bb813334604051620004d79392919062000d60565b60405180910390a15050565b6000338686868686604051620004f9906200066a565b6200050a9695949392919062000e26565b604051809103906000f08015801562000527573d6000803e3d6000fd5b5090506000819080600181540180825580915050600190039060005260206000200160009091909190916101000a81548173ffffffffffffffffffffffffffffffffffffffff021916908373ffffffffffffffffffffffffffffffffffffffff1602179055507fb328712db6ece277e92afc6f351cb9bf26682c4c657359f9387bb6628a6b442781338888888888604051620005ca979695949392919062000eaf565b60405180910390a1505050505050565b606060008054806020026020016040519081016040528092919081815260200182805480156200066057602002820191906000526020600020905b8160009054906101000a900473ffffffffffffffffffffffffffffffffffffffff1673ffffffffffffffffffffffffffffffffffffffff168152602001906001019080831162000615575b5050505050905090565b6114538062000f4983390190565b6000604051905090565b600080fd5b600080fd5b6000819050919050565b620006a1816200068c565b8114620006ad57600080fd5b50565b600081359050620006c18162000696565b92915050565b600060208284031215620006e057620006df62000682565b5b6000620006f084828501620006b0565b91505092915050565b600073ffffffffffffffffffffffffffffffffffffffff82169050919050565b6000819050919050565b6000620007446200073e6200073884620006f9565b62000719565b620006f9565b9050919050565b6000620007588262000723565b9050919050565b60006200076c826200074b565b9050919050565b6200077e816200075f565b82525050565b60006020820190506200079b600083018462000773565b92915050565b600080fd5b600080fd5b6000601f19601f8301169050919050565b7f4e487b7100000000000000000000000000000000000000000000000000000000600052604160045260246000fd5b620007f682620007ab565b810181811067ffffffffffffffff82111715620008185762000817620007bc565b5b80604052505050565b60006200082d62000678565b90506200083b8282620007eb565b919050565b600067ffffffffffffffff8211156200085e576200085d620007bc565b5b6200086982620007ab565b9050602081019050919050565b82818337600083830152505050565b60006200089c620008968462000840565b62000821565b905082815260208101848484011115620008bb57620008ba620007a6565b5b620008c884828562000876565b509392505050565b600082601f830112620008e857620008e7620007a1565b5b8135620008fa84826020860162000885565b91505092915050565b6000819050919050565b620009188162000903565b81146200092457600080fd5b50565b60008135905062000938816200090d565b92915050565b600080600080600060a086880312156200095d576200095c62000682565b5b600086013567ffffffffffffffff8111156200097e576200097d62000687565b5b6200098c88828901620008d0565b955050602086013567ffffffffffffffff811115620009b057620009af62000687565b5b620009be88828901620008d0565b945050604086013567ffffffffffffffff811115620009e257620009e162000687565b5b620009f088828901620008d0565b935050606062000a038882890162000927565b925050608086013567ffffffffffffffff81111562000a275762000a2662000687565b5b62000a3588828901620008d0565b9150509295509295909350565b600081519050919050565b600082825260208201905092915050565b6000819050602082019050919050565b62000a79816200075f565b82525050565b600062000a8d838362000a6e565b60208301905092915050565b6000602082019050919050565b600062000ab38262000a42565b62000abf818562000a4d565b935062000acc8362000a5e565b8060005b8381101562000b0357815162000ae7888262000a7f565b975062000af48362000a99565b92505060018101905062000ad0565b5085935050505092915050565b6000602082019050818103600083015262000b2c818462000aa6565b905092915050565b600082825260208201905092915050565b7f43616d706169676e20646f6573206e6f74206578697374000000000000000000600082015250565b600062000b7d60178362000b34565b915062000b8a8262000b45565b602082019050919050565b6000602082019050818103600083015262000bb08162000b6e565b9050919050565b7f4e487b7100000000000000000000000000000000000000000000000000000000600052603260045260246000fd5b600062000bf382620006f9565b9050919050565b62000c058162000be6565b811462000c1157600080fd5b50565b60008151905062000c258162000bfa565b92915050565b60006020828403121562000c445762000c4362000682565b5b600062000c548482850162000c14565b91505092915050565b7f4f6e6c79207468652063616d706169676e206f776e65722063616e207769746860008201527f647261772066756e647300000000000000000000000000000000000000000000602082015250565b600062000cbb602a8362000b34565b915062000cc88262000c5d565b604082019050919050565b6000602082019050818103600083015262000cee8162000cac565b9050919050565b60008151905062000d068162000696565b92915050565b60006020828403121562000d255762000d2462000682565b5b600062000d358482850162000cf5565b91505092915050565b62000d498162000be6565b82525050565b62000d5a816200068c565b82525050565b600060608201905062000d77600083018662000d3e565b62000d86602083018562000d3e565b62000d95604083018462000d4f565b949350505050565b600081519050919050565b60005b8381101562000dc857808201518184015260208101905062000dab565b60008484015250505050565b600062000de18262000d9d565b62000ded818562000b34565b935062000dff81856020860162000da8565b62000e0a81620007ab565b840191505092915050565b62000e208162000903565b82525050565b600060c08201905062000e3d600083018962000d3e565b818103602083015262000e51818862000dd4565b9050818103604083015262000e67818762000dd4565b9050818103606083015262000e7d818662000dd4565b905062000e8e608083018562000e15565b81810360a083015262000ea2818462000dd4565b9050979650505050505050565b600060e08201905062000ec6600083018a62000d3e565b62000ed5602083018962000d3e565b818103604083015262000ee9818862000dd4565b9050818103606083015262000eff818762000dd4565b9050818103608083015262000f15818662000dd4565b905062000f2660a083018562000e15565b81810360c083015262000f3a818462000dd4565b90509897505050505050505056fe60806040526000600555600060065560006008556000600960006101000a81548160ff0219169083151502179055506040516200145338038062001453833981810160405281019062000053919062000321565b856000806101000a81548173ffffffffffffffffffffffffffffffffffffffff021916908373ffffffffffffffffffffffffffffffffffffffff1602179055508460019081620000a4919062000684565b508360029081620000b6919062000684565b508260039081620000c8919062000684565b50816004819055508060079081620000e1919062000684565b505050505050506200076b565b6000604051905090565b600080fd5b600080fd5b600073ffffffffffffffffffffffffffffffffffffffff82169050919050565b60006200012f8262000102565b9050919050565b620001418162000122565b81146200014d57600080fd5b50565b600081519050620001618162000136565b92915050565b600080fd5b600080fd5b6000601f19601f8301169050919050565b7f4e487b7100000000000000000000000000000000000000000000000000000000600052604160045260246000fd5b620001bc8262000171565b810181811067ffffffffffffffff82111715620001de57620001dd62000182565b5b80604052505050565b6000620001f3620000ee565b9050620002018282620001b1565b919050565b600067ffffffffffffffff82111562000224576200022362000182565b5b6200022f8262000171565b9050602081019050919050565b60005b838110156200025c5780820151818401526020810190506200023f565b60008484015250505050565b60006200027f620002798462000206565b620001e7565b9050828152602081018484840111156200029e576200029d6200016c565b5b620002ab8482856200023c565b509392505050565b600082601f830112620002cb57620002ca62000167565b5b8151620002dd84826020860162000268565b91505092915050565b6000819050919050565b620002fb81620002e6565b81146200030757600080fd5b50565b6000815190506200031b81620002f0565b92915050565b60008060008060008060c08789031215620003415762000340620000f8565b5b60006200035189828a0162000150565b965050602087015167ffffffffffffffff811115620003755762000374620000fd565b5b6200038389828a01620002b3565b955050604087015167ffffffffffffffff811115620003a757620003a6620000fd565b5b620003b589828a01620002b3565b945050606087015167ffffffffffffffff811115620003d957620003d8620000fd565b5b620003e789828a01620002b3565b9350506080620003fa89828a016200030a565b92505060a087015167ffffffffffffffff8111156200041e576200041d620000fd565b5b6200042c89828a01620002b3565b9150509295509295509295565b600081519050919050565b7f4e487b7100000000000000000000000000000000000000000000000000000000600052602260045260246000fd5b600060028204905060018216806200048c57607f821691505b602082108103620004a257620004a162000444565b5b50919050565b60008190508160005260206000209050919050565b60006020601f8301049050919050565b600082821b905092915050565b6000600883026200050c7fffffffffffffffffffffffffffffffffffffffffffffffffffffffffffffffff82620004cd565b620005188683620004cd565b95508019841693508086168417925050509392505050565b6000819050919050565b6000819050919050565b6000620005656200055f620005598462000530565b6200053a565b62000530565b9050919050565b6000819050919050565b620005818362000544565b6200059962000590826200056c565b848454620004da565b825550505050565b600090565b620005b0620005a1565b620005bd81848462000576565b505050565b5b81811015620005e557620005d9600082620005a6565b600181019050620005c3565b5050565b601f8211156200063457620005fe81620004a8565b6200060984620004bd565b8101602085101562000619578190505b620006316200062885620004bd565b830182620005c2565b50505b505050565b600082821c905092915050565b6000620006596000198460080262000639565b1980831691505092915050565b600062000674838362000646565b9150826002028217905092915050565b6200068f8262000439565b67ffffffffffffffff811115620006ab57620006aa62000182565b5b620006b7825462000473565b620006c4828285620005e9565b600060209050601f831160018114620006fc5760008415620006e7578287015190505b620006f3858262000666565b86555062000763565b601f1984166200070c86620004a8565b60005b8281101562000736578489015182556001820191506020850194506020810190506200070f565b8683101562000756578489015162000752601f89168262000646565b8355505b6001600288020188555050505b505050505050565b610cd8806200077b6000396000f3fe6080604052600436106100ab5760003560e01c8063953b8fb811610064578063953b8fb8146101c6578063c24a0f8b146101f1578063c80ec5221461021c578063ed88c68e14610247578063f3ccaac014610251578063f441b1c81461027c576100ba565b806306fdde03146100c457806318015191146100ef5780633ccfd60b1461011a5780637284e41614610145578063830de4b1146101705780638da5cb5b1461019b576100ba565b366100ba576100b86102a7565b005b6100c26102a7565b005b3480156100d057600080fd5b506100d961036d565b6040516100e691906108b7565b60405180910390f35b3480156100fb57600080fd5b506101046103fb565b60405161011191906108f2565b60405180910390f35b34801561012657600080fd5b5061012f610401565b60405161013c9190610926565b60405180910390f35b34801561015157600080fd5b5061015a610634565b60405161016791906108b7565b60405180910390f35b34801561017c57600080fd5b506101856106c2565b60405161019291906108f2565b60405180910390f35b3480156101a757600080fd5b506101b06106c8565b6040516101bd9190610982565b60405180910390f35b3480156101d257600080fd5b506101db6106ec565b6040516101e891906108f2565b60405180910390f35b3480156101fd57600080fd5b506102066106f2565b60405161021391906108b7565b60405180910390f35b34801561022857600080fd5b50610231610780565b60405161023e91906109b8565b60405180910390f35b61024f6102a7565b005b34801561025d57600080fd5b50610266610793565b60405161027391906108b7565b60405180910390f35b34801561028857600080fd5b50610291610821565b60405161029e91906108f2565b60405180910390f35b600034116102ea576040517f08c379a00000000000000000000000000000000000000000000000000000000081526004016102e190610a1f565b60405180910390fd5b34600560008282546102fc9190610a6e565b925050819055506001600660008282546103169190610a6e565b925050819055503373ffffffffffffffffffffffffffffffffffffffff167f264f630d9efa0d07053a31163641d9fcc0adafc9d9e76f1c37c2ce3a558d2c52346040516103639190610926565b60405180910390a2565b6001805461037a90610ae1565b80601f01602080910402602001604051908101604052809291908181526020018280546103a690610ae1565b80156103f35780601f106103c8576101008083540402835291602001916103f3565b820191906000526020600020905b8154815290600101906020018083116103d657829003601f168201915b505050505081565b60065481565b60008060009054906101000a900473ffffffffffffffffffffffffffffffffffffffff1673ffffffffffffffffffffffffffffffffffffffff163373ffffffffffffffffffffffffffffffffffffffff1614610492576040517f08c379a000000000000000000000000000000000000000000000000000000000815260040161048990610b84565b60405180910390fd5b600960009054906101000a900460ff16156104e2576040517f08c379a00000000000000000000000000000000000000000000000000000000081526004016104d990610c16565b60405180910390fd5b600060055413610527576040517f08c379a000000000000000000000000000000000000000000000000000000000815260040161051e90610c82565b60405180910390fd5b600060055490506001600960006101000a81548160ff02191690831515021790555060006005819055508060088190555060008054906101000a900473ffffffffffffffffffffffffffffffffffffffff1673ffffffffffffffffffffffffffffffffffffffff166108fc829081150290604051600060405180830381858888f193505050501580156105be573d6000803e3d6000fd5b5060008054906101000a900473ffffffffffffffffffffffffffffffffffffffff1673ffffffffffffffffffffffffffffffffffffffff167f884edad9ce6fa2440d8a54cc123490eb96d2768479d49ff9c7366125a9424364826040516106259190610926565b60405180910390a28091505090565b6002805461064190610ae1565b80601f016020809104026020016040519081016040528092919081815260200182805461066d90610ae1565b80156106ba5780601f1061068f576101008083540402835291602001916106ba565b820191906000526020600020905b81548152906001019060200180831161069d57829003601f168201915b505050505081565b60085481565b60008054906101000a900473ffffffffffffffffffffffffffffffffffffffff1681565b60045481565b600780546106ff90610ae1565b80601f016020809104026020016040519081016040528092919081815260200182805461072b90610ae1565b80156107785780601f1061074d57610100808354040283529160200191610778565b820191906000526020600020905b81548152906001019060200180831161075b57829003601f168201915b505050505081565b600960009054906101000a900460ff1681565b600380546107a090610ae1565b80601f01602080910402602001604051908101604052809291908181526020018280546107cc90610ae1565b80156108195780601f106107ee57610100808354040283529160200191610819565b820191906000526020600020905b8154815290600101906020018083116107fc57829003601f168201915b505050505081565b60055481565b600081519050919050565b600082825260208201905092915050565b60005b83811015610861578082015181840152602081019050610846565b60008484015250505050565b6000601f19601f8301169050919050565b600061088982610827565b6108938185610832565b93506108a3818560208601610843565b6108ac8161086d565b840191505092915050565b600060208201905081810360008301526108d1818461087e565b905092915050565b6000819050919050565b6108ec816108d9565b82525050565b600060208201905061090760008301846108e3565b92915050565b6000819050919050565b6109208161090d565b82525050565b600060208201905061093b6000830184610917565b92915050565b600073ffffffffffffffffffffffffffffffffffffffff82169050919050565b600061096c82610941565b9050919050565b61097c81610961565b82525050565b60006020820190506109976000830184610973565b92915050565b60008115159050919050565b6109b28161099d565b82525050565b60006020820190506109cd60008301846109a9565b92915050565b7f446f6e6174696f6e206d7573742062652067726561746572207468616e203000600082015250565b6000610a09601f83610832565b9150610a14826109d3565b602082019050919050565b60006020820190508181036000830152610a38816109fc565b9050919050565b7f4e487b7100000000000000000000000000000000000000000000000000000000600052601160045260246000fd5b6000610a79826108d9565b9150610a84836108d9565b925082820190508281121560008312168382126000841215161715610aac57610aab610a3f565b5b92915050565b7f4e487b7100000000000000000000000000000000000000000000000000000000600052602260045260246000fd5b60006002820490506001821680610af957607f821691505b602082108103610b0c57610b0b610ab2565b5b50919050565b7f4f6e6c7920746865206f776e65722063616e2063616c6c20746869732066756e60008201527f6374696f6e000000000000000000000000000000000000000000000000000000602082015250565b6000610b6e602583610832565b9150610b7982610b12565b604082019050919050565b60006020820190508181036000830152610b9d81610b61565b9050919050565b7f46756e6473206861766520616c7265616479206265656e20776974686472617760008201527f6e00000000000000000000000000000000000000000000000000000000000000602082015250565b6000610c00602183610832565b9150610c0b82610ba4565b604082019050919050565b60006020820190508181036000830152610c2f81610bf3565b9050919050565b7f4e6f2066756e647320746f207769746864726177000000000000000000000000600082015250565b6000610c6c601483610832565b9150610c7782610c36565b602082019050919050565b60006020820190508181036000830152610c9b81610c5f565b905091905056fea2646970667358221220fb435db5bc6c07ef18171493d9dca13146e17ceb0a2d6fda5736a8a2f80211b064736f6c63430008180033a26469706673582212208cf44f61f8e46517da377373a443ce6080f824d7747af7c7b0bbdbbdfb2df33564736f6c63430008180033",
  "linkReferences": {},
  "deployedLinkReferences": {}
}