{"contracts/CompaignFactory.sol":{"CompaignFactory":{"abi":[{"anonymous":false,"inputs":[{"indexed":false,"internalType":"address","name":"compaignAddress","type":"address"},{"indexed":false,"internalType":"string","name":"owner","type":"string"},{"indexed":false,"internalType":"string","name":"name","type":"string"},{"indexed":false,"internalType":"int256","name":"targetAmmount","type":"int256"},{"indexed":false,"internalType":"string","name":"endDate","type":"string"}],"name":"CompaignCreated","type":"event"},{"anonymous":false,"inputs":[{"indexed":false,"internalType":"address","name":"compaignAddress","type":"address"},{"indexed":false,"internalType":"address","name":"donor","type":"address"},{"indexed":false,"internalType":"uint256","name":"amount","type":"uint256"}],"name":"DonationMade","type":"event"},{"inputs":[{"internalType":"string","name":"_owner","type":"string"},{"internalType":"string","name":"_name","type":"string"},{"internalType":"string","name":"_description","type":"string"},{"internalType":"string","name":"_image","type":"string"},{"internalType":"int256","name":"_targetAmmount","type":"int256"},{"internalType":"string","name":"_endDate","type":"string"}],"name":"addCompaign","outputs":[],"stateMutability":"nonpayable","type":"function"},{"inputs":[{"internalType":"uint256","name":"","type":"uint256"}],"name":"compaigns","outputs":[{"internalType":"contract Compaign","name":"","type":"address"}],"stateMutability":"view","type":"function"},{"inputs":[{"internalType":"uint256","name":"index","type":"uint256"}],"name":"donateToCompaign","outputs":[],"stateMutability":"payable","type":"function"},{"inputs":[],"name":"getCompaigns","outputs":[{"internalType":"contract Compaign[]","name":"","type":"address[]"}],"stateMutability":"view","type":"function"}],"evm":{"bytecode":{"linkReferences":{},"object":"608060405234801561001057600080fd5b50611afe806100206000396000f3fe608060405260043610620000445760003560e01c806318ed9aa61462000049578063ae73c8f01462000079578063b38fdb861462000099578063cbc261d714620000c7575b600080fd5b3480156200005657600080fd5b50620000616200010b565b60405162000070919062000558565b60405180910390f35b620000976004803603810190620000919190620005cb565b6200019b565b005b348015620000a657600080fd5b50620000c56004803603810190620000bf91906200079a565b620002ce565b005b348015620000d457600080fd5b50620000f36004803603810190620000ed9190620005cb565b620003c2565b604051620001029190620008e2565b60405180910390f35b606060008054806020026020016040519081016040528092919081815260200182805480156200019157602002820191906000526020600020905b8160009054906101000a900473ffffffffffffffffffffffffffffffffffffffff1673ffffffffffffffffffffffffffffffffffffffff168152602001906001019080831162000146575b5050505050905090565b6000805490508110620001e5576040517f08c379a0000000000000000000000000000000000000000000000000000000008152600401620001dc9062000960565b60405180910390fd5b6000808281548110620001fd57620001fc62000982565b5b9060005260206000200160009054906101000a900473ffffffffffffffffffffffffffffffffffffffff1690508073ffffffffffffffffffffffffffffffffffffffff1663ed88c68e346040518263ffffffff1660e01b81526004016000604051808303818588803b1580156200027357600080fd5b505af115801562000288573d6000803e3d6000fd5b50505050507f70c6bc6cf53707fb5561feef795d557f7e46f57bd4f1a13ce36e9ffdf58d38bb813334604051620002c293929190620009e7565b60405180910390a15050565b6000868686868686604051620002e49062000402565b620002f59695949392919062000aad565b604051809103906000f08015801562000312573d6000803e3d6000fd5b5090506000819080600181540180825580915050600190039060005260206000200160009091909190916101000a81548173ffffffffffffffffffffffffffffffffffffffff021916908373ffffffffffffffffffffffffffffffffffffffff1602179055507fa97e314e7028f14f1efc5faef8f39ab7dcfb855de4792b0963a4b080911abf5e8188888686604051620003b195949392919062000b3d565b60405180910390a150505050505050565b60008181548110620003d357600080fd5b906000526020600020016000915054906101000a900473ffffffffffffffffffffffffffffffffffffffff1681565b610f198062000bb083390190565b600081519050919050565b600082825260208201905092915050565b6000819050602082019050919050565b600073ffffffffffffffffffffffffffffffffffffffff82169050919050565b6000819050919050565b600062000487620004816200047b846200043c565b6200045c565b6200043c565b9050919050565b60006200049b8262000466565b9050919050565b6000620004af826200048e565b9050919050565b620004c181620004a2565b82525050565b6000620004d58383620004b6565b60208301905092915050565b6000602082019050919050565b6000620004fb8262000410565b6200050781856200041b565b935062000514836200042c565b8060005b838110156200054b5781516200052f8882620004c7565b97506200053c83620004e1565b92505060018101905062000518565b5085935050505092915050565b60006020820190508181036000830152620005748184620004ee565b905092915050565b6000604051905090565b600080fd5b600080fd5b6000819050919050565b620005a58162000590565b8114620005b157600080fd5b50565b600081359050620005c5816200059a565b92915050565b600060208284031215620005e457620005e362000586565b5b6000620005f484828501620005b4565b91505092915050565b600080fd5b600080fd5b6000601f19601f8301169050919050565b7f4e487b7100000000000000000000000000000000000000000000000000000000600052604160045260246000fd5b620006528262000607565b810181811067ffffffffffffffff8211171562000674576200067362000618565b5b80604052505050565b6000620006896200057c565b905062000697828262000647565b919050565b600067ffffffffffffffff821115620006ba57620006b962000618565b5b620006c58262000607565b9050602081019050919050565b82818337600083830152505050565b6000620006f8620006f2846200069c565b6200067d565b90508281526020810184848401111562000717576200071662000602565b5b62000724848285620006d2565b509392505050565b600082601f830112620007445762000743620005fd565b5b813562000756848260208601620006e1565b91505092915050565b6000819050919050565b62000774816200075f565b81146200078057600080fd5b50565b600081359050620007948162000769565b92915050565b60008060008060008060c08789031215620007ba57620007b962000586565b5b600087013567ffffffffffffffff811115620007db57620007da6200058b565b5b620007e989828a016200072c565b965050602087013567ffffffffffffffff8111156200080d576200080c6200058b565b5b6200081b89828a016200072c565b955050604087013567ffffffffffffffff8111156200083f576200083e6200058b565b5b6200084d89828a016200072c565b945050606087013567ffffffffffffffff8111156200087157620008706200058b565b5b6200087f89828a016200072c565b93505060806200089289828a0162000783565b92505060a087013567ffffffffffffffff811115620008b657620008b56200058b565b5b620008c489828a016200072c565b9150509295509295509295565b620008dc81620004a2565b82525050565b6000602082019050620008f96000830184620008d1565b92915050565b600082825260208201905092915050565b7f436f6d706169676e20646f6573206e6f74206578697374000000000000000000600082015250565b600062000948601783620008ff565b9150620009558262000910565b602082019050919050565b600060208201905081810360008301526200097b8162000939565b9050919050565b7f4e487b7100000000000000000000000000000000000000000000000000000000600052603260045260246000fd5b6000620009be826200043c565b9050919050565b620009d081620009b1565b82525050565b620009e18162000590565b82525050565b6000606082019050620009fe6000830186620009c5565b62000a0d6020830185620009c5565b62000a1c6040830184620009d6565b949350505050565b600081519050919050565b60005b8381101562000a4f57808201518184015260208101905062000a32565b60008484015250505050565b600062000a688262000a24565b62000a748185620008ff565b935062000a8681856020860162000a2f565b62000a918162000607565b840191505092915050565b62000aa7816200075f565b82525050565b600060c082019050818103600083015262000ac9818962000a5b565b9050818103602083015262000adf818862000a5b565b9050818103604083015262000af5818762000a5b565b9050818103606083015262000b0b818662000a5b565b905062000b1c608083018562000a9c565b81810360a083015262000b30818462000a5b565b9050979650505050505050565b600060a08201905062000b546000830188620009c5565b818103602083015262000b68818762000a5b565b9050818103604083015262000b7e818662000a5b565b905062000b8f606083018562000a9c565b818103608083015262000ba3818462000a5b565b9050969550505050505056fe60806040526000600555600060065560405162000f1938038062000f1983398181016040528101906200003391906200026e565b8560009081620000449190620005f0565b508460019081620000569190620005f0565b508360029081620000689190620005f0565b5082600390816200007a9190620005f0565b50816004819055508060079081620000939190620005f0565b50505050505050620006d7565b6000604051905090565b600080fd5b600080fd5b600080fd5b600080fd5b6000601f19601f8301169050919050565b7f4e487b7100000000000000000000000000000000000000000000000000000000600052604160045260246000fd5b6200010982620000be565b810181811067ffffffffffffffff821117156200012b576200012a620000cf565b5b80604052505050565b600062000140620000a0565b90506200014e8282620000fe565b919050565b600067ffffffffffffffff821115620001715762000170620000cf565b5b6200017c82620000be565b9050602081019050919050565b60005b83811015620001a95780820151818401526020810190506200018c565b60008484015250505050565b6000620001cc620001c68462000153565b62000134565b905082815260208101848484011115620001eb57620001ea620000b9565b5b620001f884828562000189565b509392505050565b600082601f830112620002185762000217620000b4565b5b81516200022a848260208601620001b5565b91505092915050565b6000819050919050565b620002488162000233565b81146200025457600080fd5b50565b60008151905062000268816200023d565b92915050565b60008060008060008060c087890312156200028e576200028d620000aa565b5b600087015167ffffffffffffffff811115620002af57620002ae620000af565b5b620002bd89828a0162000200565b965050602087015167ffffffffffffffff811115620002e157620002e0620000af565b5b620002ef89828a0162000200565b955050604087015167ffffffffffffffff811115620003135762000312620000af565b5b6200032189828a0162000200565b945050606087015167ffffffffffffffff811115620003455762000344620000af565b5b6200035389828a0162000200565b93505060806200036689828a0162000257565b92505060a087015167ffffffffffffffff8111156200038a5762000389620000af565b5b6200039889828a0162000200565b9150509295509295509295565b600081519050919050565b7f4e487b7100000000000000000000000000000000000000000000000000000000600052602260045260246000fd5b60006002820490506001821680620003f857607f821691505b6020821081036200040e576200040d620003b0565b5b50919050565b60008190508160005260206000209050919050565b60006020601f8301049050919050565b600082821b905092915050565b600060088302620004787fffffffffffffffffffffffffffffffffffffffffffffffffffffffffffffffff8262000439565b62000484868362000439565b95508019841693508086168417925050509392505050565b6000819050919050565b6000819050919050565b6000620004d1620004cb620004c5846200049c565b620004a6565b6200049c565b9050919050565b6000819050919050565b620004ed83620004b0565b62000505620004fc82620004d8565b84845462000446565b825550505050565b600090565b6200051c6200050d565b62000529818484620004e2565b505050565b5b8181101562000551576200054560008262000512565b6001810190506200052f565b5050565b601f821115620005a0576200056a8162000414565b620005758462000429565b8101602085101562000585578190505b6200059d620005948562000429565b8301826200052e565b50505b505050565b600082821c905092915050565b6000620005c560001984600802620005a5565b1980831691505092915050565b6000620005e08383620005b2565b9150826002028217905092915050565b620005fb82620003a5565b67ffffffffffffffff811115620006175762000616620000cf565b5b620006238254620003df565b6200063082828562000555565b600060209050601f83116001811462000668576000841562000653578287015190505b6200065f8582620005d2565b865550620006cf565b601f198416620006788662000414565b60005b82811015620006a2578489015182556001820191506020850194506020810190506200067b565b86831015620006c25784890151620006be601f891682620005b2565b8355505b6001600288020188555050505b505050505050565b61083280620006e76000396000f3fe60806040526004361061008a5760003560e01c80639449985b116100595780639449985b1461014f578063c24a0f8b1461017a578063c8c54974146101a5578063ed88c68e146101d0578063f3ccaac0146101da57610099565b806306fdde03146100a357806318015191146100ce5780637284e416146100f95780638da5cb5b1461012457610099565b3661009957610097610205565b005b6100a1610205565b005b3480156100af57600080fd5b506100b86102cb565b6040516100c59190610633565b60405180910390f35b3480156100da57600080fd5b506100e3610359565b6040516100f0919061066e565b60405180910390f35b34801561010557600080fd5b5061010e61035f565b60405161011b9190610633565b60405180910390f35b34801561013057600080fd5b506101396103ed565b6040516101469190610633565b60405180910390f35b34801561015b57600080fd5b5061016461047b565b604051610171919061066e565b60405180910390f35b34801561018657600080fd5b5061018f610481565b60405161019c9190610633565b60405180910390f35b3480156101b157600080fd5b506101ba61050f565b6040516101c7919061066e565b60405180910390f35b6101d8610205565b005b3480156101e657600080fd5b506101ef610515565b6040516101fc9190610633565b60405180910390f35b60003411610248576040517f08c379a000000000000000000000000000000000000000000000000000000000815260040161023f906106d5565b60405180910390fd5b346005600082825461025a9190610724565b925050819055506001600660008282546102749190610724565b925050819055503373ffffffffffffffffffffffffffffffffffffffff167f264f630d9efa0d07053a31163641d9fcc0adafc9d9e76f1c37c2ce3a558d2c52346040516102c19190610781565b60405180910390a2565b600180546102d8906107cb565b80601f0160208091040260200160405190810160405280929190818152602001828054610304906107cb565b80156103515780601f1061032657610100808354040283529160200191610351565b820191906000526020600020905b81548152906001019060200180831161033457829003601f168201915b505050505081565b60065481565b6002805461036c906107cb565b80601f0160208091040260200160405190810160405280929190818152602001828054610398906107cb565b80156103e55780601f106103ba576101008083540402835291602001916103e5565b820191906000526020600020905b8154815290600101906020018083116103c857829003601f168201915b505050505081565b600080546103fa906107cb565b80601f0160208091040260200160405190810160405280929190818152602001828054610426906107cb565b80156104735780601f1061044857610100808354040283529160200191610473565b820191906000526020600020905b81548152906001019060200180831161045657829003601f168201915b505050505081565b60045481565b6007805461048e906107cb565b80601f01602080910402602001604051908101604052809291908181526020018280546104ba906107cb565b80156105075780601f106104dc57610100808354040283529160200191610507565b820191906000526020600020905b8154815290600101906020018083116104ea57829003601f168201915b505050505081565b60055481565b60038054610522906107cb565b80601f016020809104026020016040519081016040528092919081815260200182805461054e906107cb565b801561059b5780601f106105705761010080835404028352916020019161059b565b820191906000526020600020905b81548152906001019060200180831161057e57829003601f168201915b505050505081565b600081519050919050565b600082825260208201905092915050565b60005b838110156105dd5780820151818401526020810190506105c2565b60008484015250505050565b6000601f19601f8301169050919050565b6000610605826105a3565b61060f81856105ae565b935061061f8185602086016105bf565b610628816105e9565b840191505092915050565b6000602082019050818103600083015261064d81846105fa565b905092915050565b6000819050919050565b61066881610655565b82525050565b6000602082019050610683600083018461065f565b92915050565b7f446f6e6174696f6e206d7573742062652067726561746572207468616e203000600082015250565b60006106bf601f836105ae565b91506106ca82610689565b602082019050919050565b600060208201905081810360008301526106ee816106b2565b9050919050565b7f4e487b7100000000000000000000000000000000000000000000000000000000600052601160045260246000fd5b600061072f82610655565b915061073a83610655565b925082820190508281121560008312168382126000841215161715610762576107616106f5565b5b92915050565b6000819050919050565b61077b81610768565b82525050565b60006020820190506107966000830184610772565b92915050565b7f4e487b7100000000000000000000000000000000000000000000000000000000600052602260045260246000fd5b600060028204905060018216806107e357607f821691505b6020821081036107f6576107f561079c565b5b5091905056fea264697066735822122075baa5949d56d33e7c4e96fc122268522f699ada930ed725ad118ffa2f13f9e264736f6c63430008180033a26469706673582212209071f428f38e5890b14446bcf6ff18ea1791104ec94bd3a49410b1828a4ba2b564736f6c63430008180033","opcodes":"PUSH1 0x80 PUSH1 0x40 MSTORE CALLVALUE DUP1 ISZERO PUSH2 0x10 JUMPI PUSH1 0x0 DUP1 REVERT JUMPDEST POP PUSH2 0x1AFE DUP1 PUSH2 0x20 PUSH1 0x0 CODECOPY PUSH1 0x0 RETURN INVALID PUSH1 0x80 PUSH1 0x40 MSTORE PUSH1 0x4 CALLDATASIZE LT PUSH3 0x44 JUMPI PUSH1 0x0 CALLDATALOAD PUSH1 0xE0 SHR DUP1 PUSH4 0x18ED9AA6 EQ PUSH3 0x49 JUMPI DUP1 PUSH4 0xAE73C8F0 EQ PUSH3 0x79 JUMPI DUP1 PUSH4 0xB38FDB86 EQ PUSH3 0x99 JUMPI DUP1 PUSH4 0xCBC261D7 EQ PUSH3 0xC7 JUMPI JUMPDEST PUSH1 0x0 DUP1 REVERT JUMPDEST CALLVALUE DUP1 ISZERO PUSH3 0x56 JUMPI PUSH1 0x0 DUP1 REVERT JUMPDEST POP PUSH3 0x61 PUSH3 0x10B JUMP JUMPDEST PUSH1 0x40 MLOAD PUSH3 0x70 SWAP2 SWAP1 PUSH3 0x558 JUMP JUMPDEST PUSH1 0x40 MLOAD DUP1 SWAP2 SUB SWAP1 RETURN JUMPDEST PUSH3 0x97 PUSH1 0x4 DUP1 CALLDATASIZE SUB DUP2 ADD SWAP1 PUSH3 0x91 SWAP2 SWAP1 PUSH3 0x5CB JUMP JUMPDEST PUSH3 0x19B JUMP JUMPDEST STOP JUMPDEST CALLVALUE DUP1 ISZERO PUSH3 0xA6 JUMPI PUSH1 0x0 DUP1 REVERT JUMPDEST POP PUSH3 0xC5 PUSH1 0x4 DUP1 CALLDATASIZE SUB DUP2 ADD SWAP1 PUSH3 0xBF SWAP2 SWAP1 PUSH3 0x79A JUMP JUMPDEST PUSH3 0x2CE JUMP JUMPDEST STOP JUMPDEST CALLVALUE DUP1 ISZERO PUSH3 0xD4 JUMPI PUSH1 0x0 DUP1 REVERT JUMPDEST POP PUSH3 0xF3 PUSH1 0x4 DUP1 CALLDATASIZE SUB DUP2 ADD SWAP1 PUSH3 0xED SWAP2 SWAP1 PUSH3 0x5CB JUMP JUMPDEST PUSH3 0x3C2 JUMP JUMPDEST PUSH1 0x40 MLOAD PUSH3 0x102 SWAP2 SWAP1 PUSH3 0x8E2 JUMP JUMPDEST PUSH1 0x40 MLOAD DUP1 SWAP2 SUB SWAP1 RETURN JUMPDEST PUSH1 0x60 PUSH1 0x0 DUP1 SLOAD DUP1 PUSH1 0x20 MUL PUSH1 0x20 ADD PUSH1 0x40 MLOAD SWAP1 DUP2 ADD PUSH1 0x40 MSTORE DUP1 SWAP3 SWAP2 SWAP1 DUP2 DUP2 MSTORE PUSH1 0x20 ADD DUP3 DUP1 SLOAD DUP1 ISZERO PUSH3 0x191 JUMPI PUSH1 0x20 MUL DUP3 ADD SWAP2 SWAP1 PUSH1 0x0 MSTORE PUSH1 0x20 PUSH1 0x0 KECCAK256 SWAP1 JUMPDEST DUP2 PUSH1 0x0 SWAP1 SLOAD SWAP1 PUSH2 0x100 EXP SWAP1 DIV PUSH20 0xFFFFFFFFFFFFFFFFFFFFFFFFFFFFFFFFFFFFFFFF AND PUSH20 0xFFFFFFFFFFFFFFFFFFFFFFFFFFFFFFFFFFFFFFFF AND DUP2 MSTORE PUSH1 0x20 ADD SWAP1 PUSH1 0x1 ADD SWAP1 DUP1 DUP4 GT PUSH3 0x146 JUMPI JUMPDEST POP POP POP POP POP SWAP1 POP SWAP1 JUMP JUMPDEST PUSH1 0x0 DUP1 SLOAD SWAP1 POP DUP2 LT PUSH3 0x1E5 JUMPI PUSH1 0x40 MLOAD PUSH32 0x8C379A000000000000000000000000000000000000000000000000000000000 DUP2 MSTORE PUSH1 0x4 ADD PUSH3 0x1DC SWAP1 PUSH3 0x960 JUMP JUMPDEST PUSH1 0x40 MLOAD DUP1 SWAP2 SUB SWAP1 REVERT JUMPDEST PUSH1 0x0 DUP1 DUP3 DUP2 SLOAD DUP2 LT PUSH3 0x1FD JUMPI PUSH3 0x1FC PUSH3 0x982 JUMP JUMPDEST JUMPDEST SWAP1 PUSH1 0x0 MSTORE PUSH1 0x20 PUSH1 0x0 KECCAK256 ADD PUSH1 0x0 SWAP1 SLOAD SWAP1 PUSH2 0x100 EXP SWAP1 DIV PUSH20 0xFFFFFFFFFFFFFFFFFFFFFFFFFFFFFFFFFFFFFFFF AND SWAP1 POP DUP1 PUSH20 0xFFFFFFFFFFFFFFFFFFFFFFFFFFFFFFFFFFFFFFFF AND PUSH4 0xED88C68E CALLVALUE PUSH1 0x40 MLOAD DUP3 PUSH4 0xFFFFFFFF AND PUSH1 0xE0 SHL DUP2 MSTORE PUSH1 0x4 ADD PUSH1 0x0 PUSH1 0x40 MLOAD DUP1 DUP4 SUB DUP2 DUP6 DUP9 DUP1 EXTCODESIZE ISZERO DUP1 ISZERO PUSH3 0x273 JUMPI PUSH1 0x0 DUP1 REVERT JUMPDEST POP GAS CALL ISZERO DUP1 ISZERO PUSH3 0x288 JUMPI RETURNDATASIZE PUSH1 0x0 DUP1 RETURNDATACOPY RETURNDATASIZE PUSH1 0x0 REVERT JUMPDEST POP POP POP POP POP PUSH32 0x70C6BC6CF53707FB5561FEEF795D557F7E46F57BD4F1A13CE36E9FFDF58D38BB DUP2 CALLER CALLVALUE PUSH1 0x40 MLOAD PUSH3 0x2C2 SWAP4 SWAP3 SWAP2 SWAP1 PUSH3 0x9E7 JUMP JUMPDEST PUSH1 0x40 MLOAD DUP1 SWAP2 SUB SWAP1 LOG1 POP POP JUMP JUMPDEST PUSH1 0x0 DUP7 DUP7 DUP7 DUP7 DUP7 DUP7 PUSH1 0x40 MLOAD PUSH3 0x2E4 SWAP1 PUSH3 0x402 JUMP JUMPDEST PUSH3 0x2F5 SWAP7 SWAP6 SWAP5 SWAP4 SWAP3 SWAP2 SWAP1 PUSH3 0xAAD JUMP JUMPDEST PUSH1 0x40 MLOAD DUP1 SWAP2 SUB SWAP1 PUSH1 0x0 CREATE DUP1 ISZERO DUP1 ISZERO PUSH3 0x312 JUMPI RETURNDATASIZE PUSH1 0x0 DUP1 RETURNDATACOPY RETURNDATASIZE PUSH1 0x0 REVERT JUMPDEST POP SWAP1 POP PUSH1 0x0 DUP2 SWAP1 DUP1 PUSH1 0x1 DUP2 SLOAD ADD DUP1 DUP3 SSTORE DUP1 SWAP2 POP POP PUSH1 0x1 SWAP1 SUB SWAP1 PUSH1 0x0 MSTORE PUSH1 0x20 PUSH1 0x0 KECCAK256 ADD PUSH1 0x0 SWAP1 SWAP2 SWAP1 SWAP2 SWAP1 SWAP2 PUSH2 0x100 EXP DUP2 SLOAD DUP2 PUSH20 0xFFFFFFFFFFFFFFFFFFFFFFFFFFFFFFFFFFFFFFFF MUL NOT AND SWAP1 DUP4 PUSH20 0xFFFFFFFFFFFFFFFFFFFFFFFFFFFFFFFFFFFFFFFF AND MUL OR SWAP1 SSTORE POP PUSH32 0xA97E314E7028F14F1EFC5FAEF8F39AB7DCFB855DE4792B0963A4B080911ABF5E DUP2 DUP9 DUP9 DUP7 DUP7 PUSH1 0x40 MLOAD PUSH3 0x3B1 SWAP6 SWAP5 SWAP4 SWAP3 SWAP2 SWAP1 PUSH3 0xB3D JUMP JUMPDEST PUSH1 0x40 MLOAD DUP1 SWAP2 SUB SWAP1 LOG1 POP POP POP POP POP POP POP JUMP JUMPDEST PUSH1 0x0 DUP2 DUP2 SLOAD DUP2 LT PUSH3 0x3D3 JUMPI PUSH1 0x0 DUP1 REVERT JUMPDEST SWAP1 PUSH1 0x0 MSTORE PUSH1 0x20 PUSH1 0x0 KECCAK256 ADD PUSH1 0x0 SWAP2 POP SLOAD SWAP1 PUSH2 0x100 EXP SWAP1 DIV PUSH20 0xFFFFFFFFFFFFFFFFFFFFFFFFFFFFFFFFFFFFFFFF AND DUP2 JUMP JUMPDEST PUSH2 0xF19 DUP1 PUSH3 0xBB0 DUP4 CODECOPY ADD SWAP1 JUMP JUMPDEST PUSH1 0x0 DUP2 MLOAD SWAP1 POP SWAP2 SWAP1 POP JUMP JUMPDEST PUSH1 0x0 DUP3 DUP3 MSTORE PUSH1 0x20 DUP3 ADD SWAP1 POP SWAP3 SWAP2 POP POP JUMP JUMPDEST PUSH1 0x0 DUP2 SWAP1 POP PUSH1 0x20 DUP3 ADD SWAP1 POP SWAP2 SWAP1 POP JUMP JUMPDEST PUSH1 0x0 PUSH20 0xFFFFFFFFFFFFFFFFFFFFFFFFFFFFFFFFFFFFFFFF DUP3 AND SWAP1 POP SWAP2 SWAP1 POP JUMP JUMPDEST PUSH1 0x0 DUP2 SWAP1 POP SWAP2 SWAP1 POP JUMP JUMPDEST PUSH1 0x0 PUSH3 0x487 PUSH3 0x481 PUSH3 0x47B DUP5 PUSH3 0x43C JUMP JUMPDEST PUSH3 0x45C JUMP JUMPDEST PUSH3 0x43C JUMP JUMPDEST SWAP1 POP SWAP2 SWAP1 POP JUMP JUMPDEST PUSH1 0x0 PUSH3 0x49B DUP3 PUSH3 0x466 JUMP JUMPDEST SWAP1 POP SWAP2 SWAP1 POP JUMP JUMPDEST PUSH1 0x0 PUSH3 0x4AF DUP3 PUSH3 0x48E JUMP JUMPDEST SWAP1 POP SWAP2 SWAP1 POP JUMP JUMPDEST PUSH3 0x4C1 DUP2 PUSH3 0x4A2 JUMP JUMPDEST DUP3 MSTORE POP POP JUMP JUMPDEST PUSH1 0x0 PUSH3 0x4D5 DUP4 DUP4 PUSH3 0x4B6 JUMP JUMPDEST PUSH1 0x20 DUP4 ADD SWAP1 POP SWAP3 SWAP2 POP POP JUMP JUMPDEST PUSH1 0x0 PUSH1 0x20 DUP3 ADD SWAP1 POP SWAP2 SWAP1 POP JUMP JUMPDEST PUSH1 0x0 PUSH3 0x4FB DUP3 PUSH3 0x410 JUMP JUMPDEST PUSH3 0x507 DUP2 DUP6 PUSH3 0x41B JUMP JUMPDEST SWAP4 POP PUSH3 0x514 DUP4 PUSH3 0x42C JUMP JUMPDEST DUP1 PUSH1 0x0 JUMPDEST DUP4 DUP2 LT ISZERO PUSH3 0x54B JUMPI DUP2 MLOAD PUSH3 0x52F DUP9 DUP3 PUSH3 0x4C7 JUMP JUMPDEST SWAP8 POP PUSH3 0x53C DUP4 PUSH3 0x4E1 JUMP JUMPDEST SWAP3 POP POP PUSH1 0x1 DUP2 ADD SWAP1 POP PUSH3 0x518 JUMP JUMPDEST POP DUP6 SWAP4 POP POP POP POP SWAP3 SWAP2 POP POP JUMP JUMPDEST PUSH1 0x0 PUSH1 0x20 DUP3 ADD SWAP1 POP DUP2 DUP2 SUB PUSH1 0x0 DUP4 ADD MSTORE PUSH3 0x574 DUP2 DUP5 PUSH3 0x4EE JUMP JUMPDEST SWAP1 POP SWAP3 SWAP2 POP POP JUMP JUMPDEST PUSH1 0x0 PUSH1 0x40 MLOAD SWAP1 POP SWAP1 JUMP JUMPDEST PUSH1 0x0 DUP1 REVERT JUMPDEST PUSH1 0x0 DUP1 REVERT JUMPDEST PUSH1 0x0 DUP2 SWAP1 POP SWAP2 SWAP1 POP JUMP JUMPDEST PUSH3 0x5A5 DUP2 PUSH3 0x590 JUMP JUMPDEST DUP2 EQ PUSH3 0x5B1 JUMPI PUSH1 0x0 DUP1 REVERT JUMPDEST POP JUMP JUMPDEST PUSH1 0x0 DUP2 CALLDATALOAD SWAP1 POP PUSH3 0x5C5 DUP2 PUSH3 0x59A JUMP JUMPDEST SWAP3 SWAP2 POP POP JUMP JUMPDEST PUSH1 0x0 PUSH1 0x20 DUP3 DUP5 SUB SLT ISZERO PUSH3 0x5E4 JUMPI PUSH3 0x5E3 PUSH3 0x586 JUMP JUMPDEST JUMPDEST PUSH1 0x0 PUSH3 0x5F4 DUP5 DUP3 DUP6 ADD PUSH3 0x5B4 JUMP JUMPDEST SWAP2 POP POP SWAP3 SWAP2 POP POP JUMP JUMPDEST PUSH1 0x0 DUP1 REVERT JUMPDEST PUSH1 0x0 DUP1 REVERT JUMPDEST PUSH1 0x0 PUSH1 0x1F NOT PUSH1 0x1F DUP4 ADD AND SWAP1 POP SWAP2 SWAP1 POP JUMP JUMPDEST PUSH32 0x4E487B7100000000000000000000000000000000000000000000000000000000 PUSH1 0x0 MSTORE PUSH1 0x41 PUSH1 0x4 MSTORE PUSH1 0x24 PUSH1 0x0 REVERT JUMPDEST PUSH3 0x652 DUP3 PUSH3 0x607 JUMP JUMPDEST DUP2 ADD DUP2 DUP2 LT PUSH8 0xFFFFFFFFFFFFFFFF DUP3 GT OR ISZERO PUSH3 0x674 JUMPI PUSH3 0x673 PUSH3 0x618 JUMP JUMPDEST JUMPDEST DUP1 PUSH1 0x40 MSTORE POP POP POP JUMP JUMPDEST PUSH1 0x0 PUSH3 0x689 PUSH3 0x57C JUMP JUMPDEST SWAP1 POP PUSH3 0x697 DUP3 DUP3 PUSH3 0x647 JUMP JUMPDEST SWAP2 SWAP1 POP JUMP JUMPDEST PUSH1 0x0 PUSH8 0xFFFFFFFFFFFFFFFF DUP3 GT ISZERO PUSH3 0x6BA JUMPI PUSH3 0x6B9 PUSH3 0x618 JUMP JUMPDEST JUMPDEST PUSH3 0x6C5 DUP3 PUSH3 0x607 JUMP JUMPDEST SWAP1 POP PUSH1 0x20 DUP2 ADD SWAP1 POP SWAP2 SWAP1 POP JUMP JUMPDEST DUP3 DUP2 DUP4 CALLDATACOPY PUSH1 0x0 DUP4 DUP4 ADD MSTORE POP POP POP JUMP JUMPDEST PUSH1 0x0 PUSH3 0x6F8 PUSH3 0x6F2 DUP5 PUSH3 0x69C JUMP JUMPDEST PUSH3 0x67D JUMP JUMPDEST SWAP1 POP DUP3 DUP2 MSTORE PUSH1 0x20 DUP2 ADD DUP5 DUP5 DUP5 ADD GT ISZERO PUSH3 0x717 JUMPI PUSH3 0x716 PUSH3 0x602 JUMP JUMPDEST JUMPDEST PUSH3 0x724 DUP5 DUP3 DUP6 PUSH3 0x6D2 JUMP JUMPDEST POP SWAP4 SWAP3 POP POP POP JUMP JUMPDEST PUSH1 0x0 DUP3 PUSH1 0x1F DUP4 ADD SLT PUSH3 0x744 JUMPI PUSH3 0x743 PUSH3 0x5FD JUMP JUMPDEST JUMPDEST DUP2 CALLDATALOAD PUSH3 0x756 DUP5 DUP3 PUSH1 0x20 DUP7 ADD PUSH3 0x6E1 JUMP JUMPDEST SWAP2 POP POP SWAP3 SWAP2 POP POP JUMP JUMPDEST PUSH1 0x0 DUP2 SWAP1 POP SWAP2 SWAP1 POP JUMP JUMPDEST PUSH3 0x774 DUP2 PUSH3 0x75F JUMP JUMPDEST DUP2 EQ PUSH3 0x780 JUMPI PUSH1 0x0 DUP1 REVERT JUMPDEST POP JUMP JUMPDEST PUSH1 0x0 DUP2 CALLDATALOAD SWAP1 POP PUSH3 0x794 DUP2 PUSH3 0x769 JUMP JUMPDEST SWAP3 SWAP2 POP POP JUMP JUMPDEST PUSH1 0x0 DUP1 PUSH1 0x0 DUP1 PUSH1 0x0 DUP1 PUSH1 0xC0 DUP8 DUP10 SUB SLT ISZERO PUSH3 0x7BA JUMPI PUSH3 0x7B9 PUSH3 0x586 JUMP JUMPDEST JUMPDEST PUSH1 0x0 DUP8 ADD CALLDATALOAD PUSH8 0xFFFFFFFFFFFFFFFF DUP2 GT ISZERO PUSH3 0x7DB JUMPI PUSH3 0x7DA PUSH3 0x58B JUMP JUMPDEST JUMPDEST PUSH3 0x7E9 DUP10 DUP3 DUP11 ADD PUSH3 0x72C JUMP JUMPDEST SWAP7 POP POP PUSH1 0x20 DUP8 ADD CALLDATALOAD PUSH8 0xFFFFFFFFFFFFFFFF DUP2 GT ISZERO PUSH3 0x80D JUMPI PUSH3 0x80C PUSH3 0x58B JUMP JUMPDEST JUMPDEST PUSH3 0x81B DUP10 DUP3 DUP11 ADD PUSH3 0x72C JUMP JUMPDEST SWAP6 POP POP PUSH1 0x40 DUP8 ADD CALLDATALOAD PUSH8 0xFFFFFFFFFFFFFFFF DUP2 GT ISZERO PUSH3 0x83F JUMPI PUSH3 0x83E PUSH3 0x58B JUMP JUMPDEST JUMPDEST PUSH3 0x84D DUP10 DUP3 DUP11 ADD PUSH3 0x72C JUMP JUMPDEST SWAP5 POP POP PUSH1 0x60 DUP8 ADD CALLDATALOAD PUSH8 0xFFFFFFFFFFFFFFFF DUP2 GT ISZERO PUSH3 0x871 JUMPI PUSH3 0x870 PUSH3 0x58B JUMP JUMPDEST JUMPDEST PUSH3 0x87F DUP10 DUP3 DUP11 ADD PUSH3 0x72C JUMP JUMPDEST SWAP4 POP POP PUSH1 0x80 PUSH3 0x892 DUP10 DUP3 DUP11 ADD PUSH3 0x783 JUMP JUMPDEST SWAP3 POP POP PUSH1 0xA0 DUP8 ADD CALLDATALOAD PUSH8 0xFFFFFFFFFFFFFFFF DUP2 GT ISZERO PUSH3 0x8B6 JUMPI PUSH3 0x8B5 PUSH3 0x58B JUMP JUMPDEST JUMPDEST PUSH3 0x8C4 DUP10 DUP3 DUP11 ADD PUSH3 0x72C JUMP JUMPDEST SWAP2 POP POP SWAP3 SWAP6 POP SWAP3 SWAP6 POP SWAP3 SWAP6 JUMP JUMPDEST PUSH3 0x8DC DUP2 PUSH3 0x4A2 JUMP JUMPDEST DUP3 MSTORE POP POP JUMP JUMPDEST PUSH1 0x0 PUSH1 0x20 DUP3 ADD SWAP1 POP PUSH3 0x8F9 PUSH1 0x0 DUP4 ADD DUP5 PUSH3 0x8D1 JUMP JUMPDEST SWAP3 SWAP2 POP POP JUMP JUMPDEST PUSH1 0x0 DUP3 DUP3 MSTORE PUSH1 0x20 DUP3 ADD SWAP1 POP SWAP3 SWAP2 POP POP JUMP JUMPDEST PUSH32 0x436F6D706169676E20646F6573206E6F74206578697374000000000000000000 PUSH1 0x0 DUP3 ADD MSTORE POP JUMP JUMPDEST PUSH1 0x0 PUSH3 0x948 PUSH1 0x17 DUP4 PUSH3 0x8FF JUMP JUMPDEST SWAP2 POP PUSH3 0x955 DUP3 PUSH3 0x910 JUMP JUMPDEST PUSH1 0x20 DUP3 ADD SWAP1 POP SWAP2 SWAP1 POP JUMP JUMPDEST PUSH1 0x0 PUSH1 0x20 DUP3 ADD SWAP1 POP DUP2 DUP2 SUB PUSH1 0x0 DUP4 ADD MSTORE PUSH3 0x97B DUP2 PUSH3 0x939 JUMP JUMPDEST SWAP1 POP SWAP2 SWAP1 POP JUMP JUMPDEST PUSH32 0x4E487B7100000000000000000000000000000000000000000000000000000000 PUSH1 0x0 MSTORE PUSH1 0x32 PUSH1 0x4 MSTORE PUSH1 0x24 PUSH1 0x0 REVERT JUMPDEST PUSH1 0x0 PUSH3 0x9BE DUP3 PUSH3 0x43C JUMP JUMPDEST SWAP1 POP SWAP2 SWAP1 POP JUMP JUMPDEST PUSH3 0x9D0 DUP2 PUSH3 0x9B1 JUMP JUMPDEST DUP3 MSTORE POP POP JUMP JUMPDEST PUSH3 0x9E1 DUP2 PUSH3 0x590 JUMP JUMPDEST DUP3 MSTORE POP POP JUMP JUMPDEST PUSH1 0x0 PUSH1 0x60 DUP3 ADD SWAP1 POP PUSH3 0x9FE PUSH1 0x0 DUP4 ADD DUP7 PUSH3 0x9C5 JUMP JUMPDEST PUSH3 0xA0D PUSH1 0x20 DUP4 ADD DUP6 PUSH3 0x9C5 JUMP JUMPDEST PUSH3 0xA1C PUSH1 0x40 DUP4 ADD DUP5 PUSH3 0x9D6 JUMP JUMPDEST SWAP5 SWAP4 POP POP POP POP JUMP JUMPDEST PUSH1 0x0 DUP2 MLOAD SWAP1 POP SWAP2 SWAP1 POP JUMP JUMPDEST PUSH1 0x0 JUMPDEST DUP4 DUP2 LT ISZERO PUSH3 0xA4F JUMPI DUP1 DUP3 ADD MLOAD DUP2 DUP5 ADD MSTORE PUSH1 0x20 DUP2 ADD SWAP1 POP PUSH3 0xA32 JUMP JUMPDEST PUSH1 0x0 DUP5 DUP5 ADD MSTORE POP POP POP POP JUMP JUMPDEST PUSH1 0x0 PUSH3 0xA68 DUP3 PUSH3 0xA24 JUMP JUMPDEST PUSH3 0xA74 DUP2 DUP6 PUSH3 0x8FF JUMP JUMPDEST SWAP4 POP PUSH3 0xA86 DUP2 DUP6 PUSH1 0x20 DUP7 ADD PUSH3 0xA2F JUMP JUMPDEST PUSH3 0xA91 DUP2 PUSH3 0x607 JUMP JUMPDEST DUP5 ADD SWAP2 POP POP SWAP3 SWAP2 POP POP JUMP JUMPDEST PUSH3 0xAA7 DUP2 PUSH3 0x75F JUMP JUMPDEST DUP3 MSTORE POP POP JUMP JUMPDEST PUSH1 0x0 PUSH1 0xC0 DUP3 ADD SWAP1 POP DUP2 DUP2 SUB PUSH1 0x0 DUP4 ADD MSTORE PUSH3 0xAC9 DUP2 DUP10 PUSH3 0xA5B JUMP JUMPDEST SWAP1 POP DUP2 DUP2 SUB PUSH1 0x20 DUP4 ADD MSTORE PUSH3 0xADF DUP2 DUP9 PUSH3 0xA5B JUMP JUMPDEST SWAP1 POP DUP2 DUP2 SUB PUSH1 0x40 DUP4 ADD MSTORE PUSH3 0xAF5 DUP2 DUP8 PUSH3 0xA5B JUMP JUMPDEST SWAP1 POP DUP2 DUP2 SUB PUSH1 0x60 DUP4 ADD MSTORE PUSH3 0xB0B DUP2 DUP7 PUSH3 0xA5B JUMP JUMPDEST SWAP1 POP PUSH3 0xB1C PUSH1 0x80 DUP4 ADD DUP6 PUSH3 0xA9C JUMP JUMPDEST DUP2 DUP2 SUB PUSH1 0xA0 DUP4 ADD MSTORE PUSH3 0xB30 DUP2 DUP5 PUSH3 0xA5B JUMP JUMPDEST SWAP1 POP SWAP8 SWAP7 POP POP POP POP POP POP POP JUMP JUMPDEST PUSH1 0x0 PUSH1 0xA0 DUP3 ADD SWAP1 POP PUSH3 0xB54 PUSH1 0x0 DUP4 ADD DUP9 PUSH3 0x9C5 JUMP JUMPDEST DUP2 DUP2 SUB PUSH1 0x20 DUP4 ADD MSTORE PUSH3 0xB68 DUP2 DUP8 PUSH3 0xA5B JUMP JUMPDEST SWAP1 POP DUP2 DUP2 SUB PUSH1 0x40 DUP4 ADD MSTORE PUSH3 0xB7E DUP2 DUP7 PUSH3 0xA5B JUMP JUMPDEST SWAP1 POP PUSH3 0xB8F PUSH1 0x60 DUP4 ADD DUP6 PUSH3 0xA9C JUMP JUMPDEST DUP2 DUP2 SUB PUSH1 0x80 DUP4 ADD MSTORE PUSH3 0xBA3 DUP2 DUP5 PUSH3 0xA5B JUMP JUMPDEST SWAP1 POP SWAP7 SWAP6 POP POP POP POP POP POP JUMP INVALID PUSH1 0x80 PUSH1 0x40 MSTORE PUSH1 0x0 PUSH1 0x5 SSTORE PUSH1 0x0 PUSH1 0x6 SSTORE PUSH1 0x40 MLOAD PUSH3 0xF19 CODESIZE SUB DUP1 PUSH3 0xF19 DUP4 CODECOPY DUP2 DUP2 ADD PUSH1 0x40 MSTORE DUP2 ADD SWAP1 PUSH3 0x33 SWAP2 SWAP1 PUSH3 0x26E JUMP JUMPDEST DUP6 PUSH1 0x0 SWAP1 DUP2 PUSH3 0x44 SWAP2 SWAP1 PUSH3 0x5F0 JUMP JUMPDEST POP DUP5 PUSH1 0x1 SWAP1 DUP2 PUSH3 0x56 SWAP2 SWAP1 PUSH3 0x5F0 JUMP JUMPDEST POP DUP4 PUSH1 0x2 SWAP1 DUP2 PUSH3 0x68 SWAP2 SWAP1 PUSH3 0x5F0 JUMP JUMPDEST POP DUP3 PUSH1 0x3 SWAP1 DUP2 PUSH3 0x7A SWAP2 SWAP1 PUSH3 0x5F0 JUMP JUMPDEST POP DUP2 PUSH1 0x4 DUP2 SWAP1 SSTORE POP DUP1 PUSH1 0x7 SWAP1 DUP2 PUSH3 0x93 SWAP2 SWAP1 PUSH3 0x5F0 JUMP JUMPDEST POP POP POP POP POP POP POP PUSH3 0x6D7 JUMP JUMPDEST PUSH1 0x0 PUSH1 0x40 MLOAD SWAP1 POP SWAP1 JUMP JUMPDEST PUSH1 0x0 DUP1 REVERT JUMPDEST PUSH1 0x0 DUP1 REVERT JUMPDEST PUSH1 0x0 DUP1 REVERT JUMPDEST PUSH1 0x0 DUP1 REVERT JUMPDEST PUSH1 0x0 PUSH1 0x1F NOT PUSH1 0x1F DUP4 ADD AND SWAP1 POP SWAP2 SWAP1 POP JUMP JUMPDEST PUSH32 0x4E487B7100000000000000000000000000000000000000000000000000000000 PUSH1 0x0 MSTORE PUSH1 0x41 PUSH1 0x4 MSTORE PUSH1 0x24 PUSH1 0x0 REVERT JUMPDEST PUSH3 0x109 DUP3 PUSH3 0xBE JUMP JUMPDEST DUP2 ADD DUP2 DUP2 LT PUSH8 0xFFFFFFFFFFFFFFFF DUP3 GT OR ISZERO PUSH3 0x12B JUMPI PUSH3 0x12A PUSH3 0xCF JUMP JUMPDEST JUMPDEST DUP1 PUSH1 0x40 MSTORE POP POP POP JUMP JUMPDEST PUSH1 0x0 PUSH3 0x140 PUSH3 0xA0 JUMP JUMPDEST SWAP1 POP PUSH3 0x14E DUP3 DUP3 PUSH3 0xFE JUMP JUMPDEST SWAP2 SWAP1 POP JUMP JUMPDEST PUSH1 0x0 PUSH8 0xFFFFFFFFFFFFFFFF DUP3 GT ISZERO PUSH3 0x171 JUMPI PUSH3 0x170 PUSH3 0xCF JUMP JUMPDEST JUMPDEST PUSH3 0x17C DUP3 PUSH3 0xBE JUMP JUMPDEST SWAP1 POP PUSH1 0x20 DUP2 ADD SWAP1 POP SWAP2 SWAP1 POP JUMP JUMPDEST PUSH1 0x0 JUMPDEST DUP4 DUP2 LT ISZERO PUSH3 0x1A9 JUMPI DUP1 DUP3 ADD MLOAD DUP2 DUP5 ADD MSTORE PUSH1 0x20 DUP2 ADD SWAP1 POP PUSH3 0x18C JUMP JUMPDEST PUSH1 0x0 DUP5 DUP5 ADD MSTORE POP POP POP POP JUMP JUMPDEST PUSH1 0x0 PUSH3 0x1CC PUSH3 0x1C6 DUP5 PUSH3 0x153 JUMP JUMPDEST PUSH3 0x134 JUMP JUMPDEST SWAP1 POP DUP3 DUP2 MSTORE PUSH1 0x20 DUP2 ADD DUP5 DUP5 DUP5 ADD GT ISZERO PUSH3 0x1EB JUMPI PUSH3 0x1EA PUSH3 0xB9 JUMP JUMPDEST JUMPDEST PUSH3 0x1F8 DUP5 DUP3 DUP6 PUSH3 0x189 JUMP JUMPDEST POP SWAP4 SWAP3 POP POP POP JUMP JUMPDEST PUSH1 0x0 DUP3 PUSH1 0x1F DUP4 ADD SLT PUSH3 0x218 JUMPI PUSH3 0x217 PUSH3 0xB4 JUMP JUMPDEST JUMPDEST DUP2 MLOAD PUSH3 0x22A DUP5 DUP3 PUSH1 0x20 DUP7 ADD PUSH3 0x1B5 JUMP JUMPDEST SWAP2 POP POP SWAP3 SWAP2 POP POP JUMP JUMPDEST PUSH1 0x0 DUP2 SWAP1 POP SWAP2 SWAP1 POP JUMP JUMPDEST PUSH3 0x248 DUP2 PUSH3 0x233 JUMP JUMPDEST DUP2 EQ PUSH3 0x254 JUMPI PUSH1 0x0 DUP1 REVERT JUMPDEST POP JUMP JUMPDEST PUSH1 0x0 DUP2 MLOAD SWAP1 POP PUSH3 0x268 DUP2 PUSH3 0x23D JUMP JUMPDEST SWAP3 SWAP2 POP POP JUMP JUMPDEST PUSH1 0x0 DUP1 PUSH1 0x0 DUP1 PUSH1 0x0 DUP1 PUSH1 0xC0 DUP8 DUP10 SUB SLT ISZERO PUSH3 0x28E JUMPI PUSH3 0x28D PUSH3 0xAA JUMP JUMPDEST JUMPDEST PUSH1 0x0 DUP8 ADD MLOAD PUSH8 0xFFFFFFFFFFFFFFFF DUP2 GT ISZERO PUSH3 0x2AF JUMPI PUSH3 0x2AE PUSH3 0xAF JUMP JUMPDEST JUMPDEST PUSH3 0x2BD DUP10 DUP3 DUP11 ADD PUSH3 0x200 JUMP JUMPDEST SWAP7 POP POP PUSH1 0x20 DUP8 ADD MLOAD PUSH8 0xFFFFFFFFFFFFFFFF DUP2 GT ISZERO PUSH3 0x2E1 JUMPI PUSH3 0x2E0 PUSH3 0xAF JUMP JUMPDEST JUMPDEST PUSH3 0x2EF DUP10 DUP3 DUP11 ADD PUSH3 0x200 JUMP JUMPDEST SWAP6 POP POP PUSH1 0x40 DUP8 ADD MLOAD PUSH8 0xFFFFFFFFFFFFFFFF DUP2 GT ISZERO PUSH3 0x313 JUMPI PUSH3 0x312 PUSH3 0xAF JUMP JUMPDEST JUMPDEST PUSH3 0x321 DUP10 DUP3 DUP11 ADD PUSH3 0x200 JUMP JUMPDEST SWAP5 POP POP PUSH1 0x60 DUP8 ADD MLOAD PUSH8 0xFFFFFFFFFFFFFFFF DUP2 GT ISZERO PUSH3 0x345 JUMPI PUSH3 0x344 PUSH3 0xAF JUMP JUMPDEST JUMPDEST PUSH3 0x353 DUP10 DUP3 DUP11 ADD PUSH3 0x200 JUMP JUMPDEST SWAP4 POP POP PUSH1 0x80 PUSH3 0x366 DUP10 DUP3 DUP11 ADD PUSH3 0x257 JUMP JUMPDEST SWAP3 POP POP PUSH1 0xA0 DUP8 ADD MLOAD PUSH8 0xFFFFFFFFFFFFFFFF DUP2 GT ISZERO PUSH3 0x38A JUMPI PUSH3 0x389 PUSH3 0xAF JUMP JUMPDEST JUMPDEST PUSH3 0x398 DUP10 DUP3 DUP11 ADD PUSH3 0x200 JUMP JUMPDEST SWAP2 POP POP SWAP3 SWAP6 POP SWAP3 SWAP6 POP SWAP3 SWAP6 JUMP JUMPDEST PUSH1 0x0 DUP2 MLOAD SWAP1 POP SWAP2 SWAP1 POP JUMP JUMPDEST PUSH32 0x4E487B7100000000000000000000000000000000000000000000000000000000 PUSH1 0x0 MSTORE PUSH1 0x22 PUSH1 0x4 MSTORE PUSH1 0x24 PUSH1 0x0 REVERT JUMPDEST PUSH1 0x0 PUSH1 0x2 DUP3 DIV SWAP1 POP PUSH1 0x1 DUP3 AND DUP1 PUSH3 0x3F8 JUMPI PUSH1 0x7F DUP3 AND SWAP2 POP JUMPDEST PUSH1 0x20 DUP3 LT DUP2 SUB PUSH3 0x40E JUMPI PUSH3 0x40D PUSH3 0x3B0 JUMP JUMPDEST JUMPDEST POP SWAP2 SWAP1 POP JUMP JUMPDEST PUSH1 0x0 DUP2 SWAP1 POP DUP2 PUSH1 0x0 MSTORE PUSH1 0x20 PUSH1 0x0 KECCAK256 SWAP1 POP SWAP2 SWAP1 POP JUMP JUMPDEST PUSH1 0x0 PUSH1 0x20 PUSH1 0x1F DUP4 ADD DIV SWAP1 POP SWAP2 SWAP1 POP JUMP JUMPDEST PUSH1 0x0 DUP3 DUP3 SHL SWAP1 POP SWAP3 SWAP2 POP POP JUMP JUMPDEST PUSH1 0x0 PUSH1 0x8 DUP4 MUL PUSH3 0x478 PUSH32 0xFFFFFFFFFFFFFFFFFFFFFFFFFFFFFFFFFFFFFFFFFFFFFFFFFFFFFFFFFFFFFFFF DUP3 PUSH3 0x439 JUMP JUMPDEST PUSH3 0x484 DUP7 DUP4 PUSH3 0x439 JUMP JUMPDEST SWAP6 POP DUP1 NOT DUP5 AND SWAP4 POP DUP1 DUP7 AND DUP5 OR SWAP3 POP POP POP SWAP4 SWAP3 POP POP POP JUMP JUMPDEST PUSH1 0x0 DUP2 SWAP1 POP SWAP2 SWAP1 POP JUMP JUMPDEST PUSH1 0x0 DUP2 SWAP1 POP SWAP2 SWAP1 POP JUMP JUMPDEST PUSH1 0x0 PUSH3 0x4D1 PUSH3 0x4CB PUSH3 0x4C5 DUP5 PUSH3 0x49C JUMP JUMPDEST PUSH3 0x4A6 JUMP JUMPDEST PUSH3 0x49C JUMP JUMPDEST SWAP1 POP SWAP2 SWAP1 POP JUMP JUMPDEST PUSH1 0x0 DUP2 SWAP1 POP SWAP2 SWAP1 POP JUMP JUMPDEST PUSH3 0x4ED DUP4 PUSH3 0x4B0 JUMP JUMPDEST PUSH3 0x505 PUSH3 0x4FC DUP3 PUSH3 0x4D8 JUMP JUMPDEST DUP5 DUP5 SLOAD PUSH3 0x446 JUMP JUMPDEST DUP3 SSTORE POP POP POP POP JUMP JUMPDEST PUSH1 0x0 SWAP1 JUMP JUMPDEST PUSH3 0x51C PUSH3 0x50D JUMP JUMPDEST PUSH3 0x529 DUP2 DUP5 DUP5 PUSH3 0x4E2 JUMP JUMPDEST POP POP POP JUMP JUMPDEST JUMPDEST DUP2 DUP2 LT ISZERO PUSH3 0x551 JUMPI PUSH3 0x545 PUSH1 0x0 DUP3 PUSH3 0x512 JUMP JUMPDEST PUSH1 0x1 DUP2 ADD SWAP1 POP PUSH3 0x52F JUMP JUMPDEST POP POP JUMP JUMPDEST PUSH1 0x1F DUP3 GT ISZERO PUSH3 0x5A0 JUMPI PUSH3 0x56A DUP2 PUSH3 0x414 JUMP JUMPDEST PUSH3 0x575 DUP5 PUSH3 0x429 JUMP JUMPDEST DUP2 ADD PUSH1 0x20 DUP6 LT ISZERO PUSH3 0x585 JUMPI DUP2 SWAP1 POP JUMPDEST PUSH3 0x59D PUSH3 0x594 DUP6 PUSH3 0x429 JUMP JUMPDEST DUP4 ADD DUP3 PUSH3 0x52E JUMP JUMPDEST POP POP JUMPDEST POP POP POP JUMP JUMPDEST PUSH1 0x0 DUP3 DUP3 SHR SWAP1 POP SWAP3 SWAP2 POP POP JUMP JUMPDEST PUSH1 0x0 PUSH3 0x5C5 PUSH1 0x0 NOT DUP5 PUSH1 0x8 MUL PUSH3 0x5A5 JUMP JUMPDEST NOT DUP1 DUP4 AND SWAP2 POP POP SWAP3 SWAP2 POP POP JUMP JUMPDEST PUSH1 0x0 PUSH3 0x5E0 DUP4 DUP4 PUSH3 0x5B2 JUMP JUMPDEST SWAP2 POP DUP3 PUSH1 0x2 MUL DUP3 OR SWAP1 POP SWAP3 SWAP2 POP POP JUMP JUMPDEST PUSH3 0x5FB DUP3 PUSH3 0x3A5 JUMP JUMPDEST PUSH8 0xFFFFFFFFFFFFFFFF DUP2 GT ISZERO PUSH3 0x617 JUMPI PUSH3 0x616 PUSH3 0xCF JUMP JUMPDEST JUMPDEST PUSH3 0x623 DUP3 SLOAD PUSH3 0x3DF JUMP JUMPDEST PUSH3 0x630 DUP3 DUP3 DUP6 PUSH3 0x555 JUMP JUMPDEST PUSH1 0x0 PUSH1 0x20 SWAP1 POP PUSH1 0x1F DUP4 GT PUSH1 0x1 DUP2 EQ PUSH3 0x668 JUMPI PUSH1 0x0 DUP5 ISZERO PUSH3 0x653 JUMPI DUP3 DUP8 ADD MLOAD SWAP1 POP JUMPDEST PUSH3 0x65F DUP6 DUP3 PUSH3 0x5D2 JUMP JUMPDEST DUP7 SSTORE POP PUSH3 0x6CF JUMP JUMPDEST PUSH1 0x1F NOT DUP5 AND PUSH3 0x678 DUP7 PUSH3 0x414 JUMP JUMPDEST PUSH1 0x0 JUMPDEST DUP3 DUP2 LT ISZERO PUSH3 0x6A2 JUMPI DUP5 DUP10 ADD MLOAD DUP3 SSTORE PUSH1 0x1 DUP3 ADD SWAP2 POP PUSH1 0x20 DUP6 ADD SWAP5 POP PUSH1 0x20 DUP2 ADD SWAP1 POP PUSH3 0x67B JUMP JUMPDEST DUP7 DUP4 LT ISZERO PUSH3 0x6C2 JUMPI DUP5 DUP10 ADD MLOAD PUSH3 0x6BE PUSH1 0x1F DUP10 AND DUP3 PUSH3 0x5B2 JUMP JUMPDEST DUP4 SSTORE POP JUMPDEST PUSH1 0x1 PUSH1 0x2 DUP9 MUL ADD DUP9 SSTORE POP POP POP JUMPDEST POP POP POP POP POP POP JUMP JUMPDEST PUSH2 0x832 DUP1 PUSH3 0x6E7 PUSH1 0x0 CODECOPY PUSH1 0x0 RETURN INVALID PUSH1 0x80 PUSH1 0x40 MSTORE PUSH1 0x4 CALLDATASIZE LT PUSH2 0x8A JUMPI PUSH1 0x0 CALLDATALOAD PUSH1 0xE0 SHR DUP1 PUSH4 0x9449985B GT PUSH2 0x59 JUMPI DUP1 PUSH4 0x9449985B EQ PUSH2 0x14F JUMPI DUP1 PUSH4 0xC24A0F8B EQ PUSH2 0x17A JUMPI DUP1 PUSH4 0xC8C54974 EQ PUSH2 0x1A5 JUMPI DUP1 PUSH4 0xED88C68E EQ PUSH2 0x1D0 JUMPI DUP1 PUSH4 0xF3CCAAC0 EQ PUSH2 0x1DA JUMPI PUSH2 0x99 JUMP JUMPDEST DUP1 PUSH4 0x6FDDE03 EQ PUSH2 0xA3 JUMPI DUP1 PUSH4 0x18015191 EQ PUSH2 0xCE JUMPI DUP1 PUSH4 0x7284E416 EQ PUSH2 0xF9 JUMPI DUP1 PUSH4 0x8DA5CB5B EQ PUSH2 0x124 JUMPI PUSH2 0x99 JUMP JUMPDEST CALLDATASIZE PUSH2 0x99 JUMPI PUSH2 0x97 PUSH2 0x205 JUMP JUMPDEST STOP JUMPDEST PUSH2 0xA1 PUSH2 0x205 JUMP JUMPDEST STOP JUMPDEST CALLVALUE DUP1 ISZERO PUSH2 0xAF JUMPI PUSH1 0x0 DUP1 REVERT JUMPDEST POP PUSH2 0xB8 PUSH2 0x2CB JUMP JUMPDEST PUSH1 0x40 MLOAD PUSH2 0xC5 SWAP2 SWAP1 PUSH2 0x633 JUMP JUMPDEST PUSH1 0x40 MLOAD DUP1 SWAP2 SUB SWAP1 RETURN JUMPDEST CALLVALUE DUP1 ISZERO PUSH2 0xDA JUMPI PUSH1 0x0 DUP1 REVERT JUMPDEST POP PUSH2 0xE3 PUSH2 0x359 JUMP JUMPDEST PUSH1 0x40 MLOAD PUSH2 0xF0 SWAP2 SWAP1 PUSH2 0x66E JUMP JUMPDEST PUSH1 0x40 MLOAD DUP1 SWAP2 SUB SWAP1 RETURN JUMPDEST CALLVALUE DUP1 ISZERO PUSH2 0x105 JUMPI PUSH1 0x0 DUP1 REVERT JUMPDEST POP PUSH2 0x10E PUSH2 0x35F JUMP JUMPDEST PUSH1 0x40 MLOAD PUSH2 0x11B SWAP2 SWAP1 PUSH2 0x633 JUMP JUMPDEST PUSH1 0x40 MLOAD DUP1 SWAP2 SUB SWAP1 RETURN JUMPDEST CALLVALUE DUP1 ISZERO PUSH2 0x130 JUMPI PUSH1 0x0 DUP1 REVERT JUMPDEST POP PUSH2 0x139 PUSH2 0x3ED JUMP JUMPDEST PUSH1 0x40 MLOAD PUSH2 0x146 SWAP2 SWAP1 PUSH2 0x633 JUMP JUMPDEST PUSH1 0x40 MLOAD DUP1 SWAP2 SUB SWAP1 RETURN JUMPDEST CALLVALUE DUP1 ISZERO PUSH2 0x15B JUMPI PUSH1 0x0 DUP1 REVERT JUMPDEST POP PUSH2 0x164 PUSH2 0x47B JUMP JUMPDEST PUSH1 0x40 MLOAD PUSH2 0x171 SWAP2 SWAP1 PUSH2 0x66E JUMP JUMPDEST PUSH1 0x40 MLOAD DUP1 SWAP2 SUB SWAP1 RETURN JUMPDEST CALLVALUE DUP1 ISZERO PUSH2 0x186 JUMPI PUSH1 0x0 DUP1 REVERT JUMPDEST POP PUSH2 0x18F PUSH2 0x481 JUMP JUMPDEST PUSH1 0x40 MLOAD PUSH2 0x19C SWAP2 SWAP1 PUSH2 0x633 JUMP JUMPDEST PUSH1 0x40 MLOAD DUP1 SWAP2 SUB SWAP1 RETURN JUMPDEST CALLVALUE DUP1 ISZERO PUSH2 0x1B1 JUMPI PUSH1 0x0 DUP1 REVERT JUMPDEST POP PUSH2 0x1BA PUSH2 0x50F JUMP JUMPDEST PUSH1 0x40 MLOAD PUSH2 0x1C7 SWAP2 SWAP1 PUSH2 0x66E JUMP JUMPDEST PUSH1 0x40 MLOAD DUP1 SWAP2 SUB SWAP1 RETURN JUMPDEST PUSH2 0x1D8 PUSH2 0x205 JUMP JUMPDEST STOP JUMPDEST CALLVALUE DUP1 ISZERO PUSH2 0x1E6 JUMPI PUSH1 0x0 DUP1 REVERT JUMPDEST POP PUSH2 0x1EF PUSH2 0x515 JUMP JUMPDEST PUSH1 0x40 MLOAD PUSH2 0x1FC SWAP2 SWAP1 PUSH2 0x633 JUMP JUMPDEST PUSH1 0x40 MLOAD DUP1 SWAP2 SUB SWAP1 RETURN JUMPDEST PUSH1 0x0 CALLVALUE GT PUSH2 0x248 JUMPI PUSH1 0x40 MLOAD PUSH32 0x8C379A000000000000000000000000000000000000000000000000000000000 DUP2 MSTORE PUSH1 0x4 ADD PUSH2 0x23F SWAP1 PUSH2 0x6D5 JUMP JUMPDEST PUSH1 0x40 MLOAD DUP1 SWAP2 SUB SWAP1 REVERT JUMPDEST CALLVALUE PUSH1 0x5 PUSH1 0x0 DUP3 DUP3 SLOAD PUSH2 0x25A SWAP2 SWAP1 PUSH2 0x724 JUMP JUMPDEST SWAP3 POP POP DUP2 SWAP1 SSTORE POP PUSH1 0x1 PUSH1 0x6 PUSH1 0x0 DUP3 DUP3 SLOAD PUSH2 0x274 SWAP2 SWAP1 PUSH2 0x724 JUMP JUMPDEST SWAP3 POP POP DUP2 SWAP1 SSTORE POP CALLER PUSH20 0xFFFFFFFFFFFFFFFFFFFFFFFFFFFFFFFFFFFFFFFF AND PUSH32 0x264F630D9EFA0D07053A31163641D9FCC0ADAFC9D9E76F1C37C2CE3A558D2C52 CALLVALUE PUSH1 0x40 MLOAD PUSH2 0x2C1 SWAP2 SWAP1 PUSH2 0x781 JUMP JUMPDEST PUSH1 0x40 MLOAD DUP1 SWAP2 SUB SWAP1 LOG2 JUMP JUMPDEST PUSH1 0x1 DUP1 SLOAD PUSH2 0x2D8 SWAP1 PUSH2 0x7CB JUMP JUMPDEST DUP1 PUSH1 0x1F ADD PUSH1 0x20 DUP1 SWAP2 DIV MUL PUSH1 0x20 ADD PUSH1 0x40 MLOAD SWAP1 DUP2 ADD PUSH1 0x40 MSTORE DUP1 SWAP3 SWAP2 SWAP1 DUP2 DUP2 MSTORE PUSH1 0x20 ADD DUP3 DUP1 SLOAD PUSH2 0x304 SWAP1 PUSH2 0x7CB JUMP JUMPDEST DUP1 ISZERO PUSH2 0x351 JUMPI DUP1 PUSH1 0x1F LT PUSH2 0x326 JUMPI PUSH2 0x100 DUP1 DUP4 SLOAD DIV MUL DUP4 MSTORE SWAP2 PUSH1 0x20 ADD SWAP2 PUSH2 0x351 JUMP JUMPDEST DUP3 ADD SWAP2 SWAP1 PUSH1 0x0 MSTORE PUSH1 0x20 PUSH1 0x0 KECCAK256 SWAP1 JUMPDEST DUP2 SLOAD DUP2 MSTORE SWAP1 PUSH1 0x1 ADD SWAP1 PUSH1 0x20 ADD DUP1 DUP4 GT PUSH2 0x334 JUMPI DUP3 SWAP1 SUB PUSH1 0x1F AND DUP3 ADD SWAP2 JUMPDEST POP POP POP POP POP DUP2 JUMP JUMPDEST PUSH1 0x6 SLOAD DUP2 JUMP JUMPDEST PUSH1 0x2 DUP1 SLOAD PUSH2 0x36C SWAP1 PUSH2 0x7CB JUMP JUMPDEST DUP1 PUSH1 0x1F ADD PUSH1 0x20 DUP1 SWAP2 DIV MUL PUSH1 0x20 ADD PUSH1 0x40 MLOAD SWAP1 DUP2 ADD PUSH1 0x40 MSTORE DUP1 SWAP3 SWAP2 SWAP1 DUP2 DUP2 MSTORE PUSH1 0x20 ADD DUP3 DUP1 SLOAD PUSH2 0x398 SWAP1 PUSH2 0x7CB JUMP JUMPDEST DUP1 ISZERO PUSH2 0x3E5 JUMPI DUP1 PUSH1 0x1F LT PUSH2 0x3BA JUMPI PUSH2 0x100 DUP1 DUP4 SLOAD DIV MUL DUP4 MSTORE SWAP2 PUSH1 0x20 ADD SWAP2 PUSH2 0x3E5 JUMP JUMPDEST DUP3 ADD SWAP2 SWAP1 PUSH1 0x0 MSTORE PUSH1 0x20 PUSH1 0x0 KECCAK256 SWAP1 JUMPDEST DUP2 SLOAD DUP2 MSTORE SWAP1 PUSH1 0x1 ADD SWAP1 PUSH1 0x20 ADD DUP1 DUP4 GT PUSH2 0x3C8 JUMPI DUP3 SWAP1 SUB PUSH1 0x1F AND DUP3 ADD SWAP2 JUMPDEST POP POP POP POP POP DUP2 JUMP JUMPDEST PUSH1 0x0 DUP1 SLOAD PUSH2 0x3FA SWAP1 PUSH2 0x7CB JUMP JUMPDEST DUP1 PUSH1 0x1F ADD PUSH1 0x20 DUP1 SWAP2 DIV MUL PUSH1 0x20 ADD PUSH1 0x40 MLOAD SWAP1 DUP2 ADD PUSH1 0x40 MSTORE DUP1 SWAP3 SWAP2 SWAP1 DUP2 DUP2 MSTORE PUSH1 0x20 ADD DUP3 DUP1 SLOAD PUSH2 0x426 SWAP1 PUSH2 0x7CB JUMP JUMPDEST DUP1 ISZERO PUSH2 0x473 JUMPI DUP1 PUSH1 0x1F LT PUSH2 0x448 JUMPI PUSH2 0x100 DUP1 DUP4 SLOAD DIV MUL DUP4 MSTORE SWAP2 PUSH1 0x20 ADD SWAP2 PUSH2 0x473 JUMP JUMPDEST DUP3 ADD SWAP2 SWAP1 PUSH1 0x0 MSTORE PUSH1 0x20 PUSH1 0x0 KECCAK256 SWAP1 JUMPDEST DUP2 SLOAD DUP2 MSTORE SWAP1 PUSH1 0x1 ADD SWAP1 PUSH1 0x20 ADD DUP1 DUP4 GT PUSH2 0x456 JUMPI DUP3 SWAP1 SUB PUSH1 0x1F AND DUP3 ADD SWAP2 JUMPDEST POP POP POP POP POP DUP2 JUMP JUMPDEST PUSH1 0x4 SLOAD DUP2 JUMP JUMPDEST PUSH1 0x7 DUP1 SLOAD PUSH2 0x48E SWAP1 PUSH2 0x7CB JUMP JUMPDEST DUP1 PUSH1 0x1F ADD PUSH1 0x20 DUP1 SWAP2 DIV MUL PUSH1 0x20 ADD PUSH1 0x40 MLOAD SWAP1 DUP2 ADD PUSH1 0x40 MSTORE DUP1 SWAP3 SWAP2 SWAP1 DUP2 DUP2 MSTORE PUSH1 0x20 ADD DUP3 DUP1 SLOAD PUSH2 0x4BA SWAP1 PUSH2 0x7CB JUMP JUMPDEST DUP1 ISZERO PUSH2 0x507 JUMPI DUP1 PUSH1 0x1F LT PUSH2 0x4DC JUMPI PUSH2 0x100 DUP1 DUP4 SLOAD DIV MUL DUP4 MSTORE SWAP2 PUSH1 0x20 ADD SWAP2 PUSH2 0x507 JUMP JUMPDEST DUP3 ADD SWAP2 SWAP1 PUSH1 0x0 MSTORE PUSH1 0x20 PUSH1 0x0 KECCAK256 SWAP1 JUMPDEST DUP2 SLOAD DUP2 MSTORE SWAP1 PUSH1 0x1 ADD SWAP1 PUSH1 0x20 ADD DUP1 DUP4 GT PUSH2 0x4EA JUMPI DUP3 SWAP1 SUB PUSH1 0x1F AND DUP3 ADD SWAP2 JUMPDEST POP POP POP POP POP DUP2 JUMP JUMPDEST PUSH1 0x5 SLOAD DUP2 JUMP JUMPDEST PUSH1 0x3 DUP1 SLOAD PUSH2 0x522 SWAP1 PUSH2 0x7CB JUMP JUMPDEST DUP1 PUSH1 0x1F ADD PUSH1 0x20 DUP1 SWAP2 DIV MUL PUSH1 0x20 ADD PUSH1 0x40 MLOAD SWAP1 DUP2 ADD PUSH1 0x40 MSTORE DUP1 SWAP3 SWAP2 SWAP1 DUP2 DUP2 MSTORE PUSH1 0x20 ADD DUP3 DUP1 SLOAD PUSH2 0x54E SWAP1 PUSH2 0x7CB JUMP JUMPDEST DUP1 ISZERO PUSH2 0x59B JUMPI DUP1 PUSH1 0x1F LT PUSH2 0x570 JUMPI PUSH2 0x100 DUP1 DUP4 SLOAD DIV MUL DUP4 MSTORE SWAP2 PUSH1 0x20 ADD SWAP2 PUSH2 0x59B JUMP JUMPDEST DUP3 ADD SWAP2 SWAP1 PUSH1 0x0 MSTORE PUSH1 0x20 PUSH1 0x0 KECCAK256 SWAP1 JUMPDEST DUP2 SLOAD DUP2 MSTORE SWAP1 PUSH1 0x1 ADD SWAP1 PUSH1 0x20 ADD DUP1 DUP4 GT PUSH2 0x57E JUMPI DUP3 SWAP1 SUB PUSH1 0x1F AND DUP3 ADD SWAP2 JUMPDEST POP POP POP POP POP DUP2 JUMP JUMPDEST PUSH1 0x0 DUP2 MLOAD SWAP1 POP SWAP2 SWAP1 POP JUMP JUMPDEST PUSH1 0x0 DUP3 DUP3 MSTORE PUSH1 0x20 DUP3 ADD SWAP1 POP SWAP3 SWAP2 POP POP JUMP JUMPDEST PUSH1 0x0 JUMPDEST DUP4 DUP2 LT ISZERO PUSH2 0x5DD JUMPI DUP1 DUP3 ADD MLOAD DUP2 DUP5 ADD MSTORE PUSH1 0x20 DUP2 ADD SWAP1 POP PUSH2 0x5C2 JUMP JUMPDEST PUSH1 0x0 DUP5 DUP5 ADD MSTORE POP POP POP POP JUMP JUMPDEST PUSH1 0x0 PUSH1 0x1F NOT PUSH1 0x1F DUP4 ADD AND SWAP1 POP SWAP2 SWAP1 POP JUMP JUMPDEST PUSH1 0x0 PUSH2 0x605 DUP3 PUSH2 0x5A3 JUMP JUMPDEST PUSH2 0x60F DUP2 DUP6 PUSH2 0x5AE JUMP JUMPDEST SWAP4 POP PUSH2 0x61F DUP2 DUP6 PUSH1 0x20 DUP7 ADD PUSH2 0x5BF JUMP JUMPDEST PUSH2 0x628 DUP2 PUSH2 0x5E9 JUMP JUMPDEST DUP5 ADD SWAP2 POP POP SWAP3 SWAP2 POP POP JUMP JUMPDEST PUSH1 0x0 PUSH1 0x20 DUP3 ADD SWAP1 POP DUP2 DUP2 SUB PUSH1 0x0 DUP4 ADD MSTORE PUSH2 0x64D DUP2 DUP5 PUSH2 0x5FA JUMP JUMPDEST SWAP1 POP SWAP3 SWAP2 POP POP JUMP JUMPDEST PUSH1 0x0 DUP2 SWAP1 POP SWAP2 SWAP1 POP JUMP JUMPDEST PUSH2 0x668 DUP2 PUSH2 0x655 JUMP JUMPDEST DUP3 MSTORE POP POP JUMP JUMPDEST PUSH1 0x0 PUSH1 0x20 DUP3 ADD SWAP1 POP PUSH2 0x683 PUSH1 0x0 DUP4 ADD DUP5 PUSH2 0x65F JUMP JUMPDEST SWAP3 SWAP2 POP POP JUMP JUMPDEST PUSH32 0x446F6E6174696F6E206D7573742062652067726561746572207468616E203000 PUSH1 0x0 DUP3 ADD MSTORE POP JUMP JUMPDEST PUSH1 0x0 PUSH2 0x6BF PUSH1 0x1F DUP4 PUSH2 0x5AE JUMP JUMPDEST SWAP2 POP PUSH2 0x6CA DUP3 PUSH2 0x689 JUMP JUMPDEST PUSH1 0x20 DUP3 ADD SWAP1 POP SWAP2 SWAP1 POP JUMP JUMPDEST PUSH1 0x0 PUSH1 0x20 DUP3 ADD SWAP1 POP DUP2 DUP2 SUB PUSH1 0x0 DUP4 ADD MSTORE PUSH2 0x6EE DUP2 PUSH2 0x6B2 JUMP JUMPDEST SWAP1 POP SWAP2 SWAP1 POP JUMP JUMPDEST PUSH32 0x4E487B7100000000000000000000000000000000000000000000000000000000 PUSH1 0x0 MSTORE PUSH1 0x11 PUSH1 0x4 MSTORE PUSH1 0x24 PUSH1 0x0 REVERT JUMPDEST PUSH1 0x0 PUSH2 0x72F DUP3 PUSH2 0x655 JUMP JUMPDEST SWAP2 POP PUSH2 0x73A DUP4 PUSH2 0x655 JUMP JUMPDEST SWAP3 POP DUP3 DUP3 ADD SWAP1 POP DUP3 DUP2 SLT ISZERO PUSH1 0x0 DUP4 SLT AND DUP4 DUP3 SLT PUSH1 0x0 DUP5 SLT ISZERO AND OR ISZERO PUSH2 0x762 JUMPI PUSH2 0x761 PUSH2 0x6F5 JUMP JUMPDEST JUMPDEST SWAP3 SWAP2 POP POP JUMP JUMPDEST PUSH1 0x0 DUP2 SWAP1 POP SWAP2 SWAP1 POP JUMP JUMPDEST PUSH2 0x77B DUP2 PUSH2 0x768 JUMP JUMPDEST DUP3 MSTORE POP POP JUMP JUMPDEST PUSH1 0x0 PUSH1 0x20 DUP3 ADD SWAP1 POP PUSH2 0x796 PUSH1 0x0 DUP4 ADD DUP5 PUSH2 0x772 JUMP JUMPDEST SWAP3 SWAP2 POP POP JUMP JUMPDEST PUSH32 0x4E487B7100000000000000000000000000000000000000000000000000000000 PUSH1 0x0 MSTORE PUSH1 0x22 PUSH1 0x4 MSTORE PUSH1 0x24 PUSH1 0x0 REVERT JUMPDEST PUSH1 0x0 PUSH1 0x2 DUP3 DIV SWAP1 POP PUSH1 0x1 DUP3 AND DUP1 PUSH2 0x7E3 JUMPI PUSH1 0x7F DUP3 AND SWAP2 POP JUMPDEST PUSH1 0x20 DUP3 LT DUP2 SUB PUSH2 0x7F6 JUMPI PUSH2 0x7F5 PUSH2 0x79C JUMP JUMPDEST JUMPDEST POP SWAP2 SWAP1 POP JUMP INVALID LOG2 PUSH5 0x6970667358 0x22 SLT KECCAK256 PUSH22 0xBAA5949D56D33E7C4E96FC122268522F699ADA930ED7 0x25 0xAD GT DUP16 STATICCALL 0x2F SGT 0xF9 0xE2 PUSH5 0x736F6C6343 STOP ADDMOD XOR STOP CALLER LOG2 PUSH5 0x6970667358 0x22 SLT KECCAK256 SWAP1 PUSH18 0xF428F38E5890B14446BCF6FF18EA1791104E 0xC9 0x4B 0xD3 LOG4 SWAP5 LT 0xB1 DUP3 DUP11 0x4B LOG2 0xB5 PUSH5 0x736F6C6343 STOP ADDMOD XOR STOP CALLER "},"methodIdentifiers":{"addCompaign(string,string,string,string,int256,string)":"b38fdb86","compaigns(uint256)":"cbc261d7","donateToCompaign(uint256)":"ae73c8f0","getCompaigns()":"18ed9aa6"}}}}}